:100000000C94A3040C94EA040C94EA040C94EA04FF
:100010000C94EA040C94EA040C94EA040C94EA04A8
:100020000C94EA040C94EA040C943B270C94F726F5
:100030000C94F52F0C94EA040C94EA040C94EA0452
:100040000C94EA040C94EA040C94EA040C94EA0478
:100050000C94EA040C94D12F0C94EA040C94EA0456
:100060000C94EA040C94EA040C94EA040C94EA0458
:100070000C94EA040C94EA040C94EA040C94EA0448
:100080000C94EA040C94EA040C94EA040C94EA0438
:100090000C94EA040C94EA040C94EA040C94EA0428
:1000A0000C94EA040C94EA040C94EA0407634236C4
:1000B000B79BD8A71A39685618AEBAAB558C1D3CF9
:1000C000B7CC5763BD6DEDFD753EF6177231BF00BD
:1000D0000000803F05A84CCDB2D44EB93836A902F5
:1000E0000C50B9918688083CA6AAAA2ABE00000036
:1000F000803F0631FF0974A1010975150026FF0034
:100100009520750881020976150026FF0095207557
:10011000089102C005010902A10185020901A1009F
:1001200005091901290515002501950575018102AB
:100130009501750381010501093009311581257F7C
:1001400095027508810609381581257F9501750886
:100150008106050C0A38021581257F9501750881F5
:1001600006C0C005010980A101850319012AB70055
:10017000150126B700950175108100C0050C090115
:10018000A101850419012AA002150126A0029501EA
:1001900075108100C00660FF0961A10109621500A8
:1001A00026FF009520750881020963150026FF00CF
:1001B000952075089102C005010906A101050719DE
:1001C000E029E71500250195087501810295017563
:1001D0000881010507190029FF150026FF00950673
:1001E0007508810005081901290595057501910219
:1001F000950175039101C000010101010101010197
:1002000001020202020202020202030303030303C9
:100210000303040404040404040505050505060697
:100220000606060707070707080808080909090955
:100230000A0A0A0B0B0B0C0C0C0D0D0D0E0E0E0FFB
:100240000F0F10101111111212131314141515168B
:10025000161717181819191A1A1B1B1C1D1D1E1EFC
:100260001F2020212222232424252626272829294D
:100270002A2B2C2D2D2E2F30313232333435363778
:1002800038393A3B3C3D3E3F404142434445464776
:1002900048494A4C4D4E4F50515354555658595A4F
:1002A0005B5D5E5F616264656668696B6C6D6F70F3
:1002B00072737577787A7B7D7E8082838587888A62
:1002C0008C8E8F91939596989A9C9EA0A2A3A5A799
:1002D000A9ABADAFB1B3B5B7BABCBEC0C2C4C6C995
:1002E000CBCDCFD1D4D6D8DBDDDFE2E4E7E9EBEE4E
:1002F000F0F3F5F8FAFDFF7267626C6967687420C5
:100300006D6F6465205B4E4F454550524F4D5D3AD1
:100310002025750A007267626C69676874206D6FCA
:100320006465205B454550524F4D5D3A2025750A66
:10033000007267626C6967687420656E61626C65E3
:10034000205B4E4F454550524F4D5D3A20726762DB
:100350006C696768745F636F6E6669672E656E614E
:10036000626C65203D2025750A007267626C6967C2
:1003700068742064697361626C65205B4E4F45450B
:1003800050524F4D5D3A207267626C696768745FC6
:10039000636F6E6669672E656E61626C65203D20D5
:1003A00025750A007267626C6967687420736574EA
:1003B00020687376205B4E4F454550524F4D5D3A55
:1003C0002025752C25752C25750A007267626C69CD
:1003D0006768742073657420687376205B454550A8
:1003E000524F4D5D3A2025752C25752C25750A0038
:1003F0007267626C69676874207261696E626F7798
:1004000020736574206873763A2025642C25642C4B
:1004100025642C25750A00FFAA7F55407267626C1F
:10042000696768742074696D657220656E61626CBD
:1004300065642E0A007267626C696768742074696B
:100440006D65722064697361626C652E0A0000003C
:100450005F00600061002A0000005C005D005E003B
:100460005700000059005A005B005600AE000158CA
:10047000620063002E0000000100D05CD55C5300D8
:1004800000000100CE5CCF5CC35C00000100C55CD5
:10049000C65CC45C02510100C95CCA5CC25C00005D
:1004A000010001000100005C0000010001000100EA
:1004B0000100000001000100010001000100010035
:1004C0000100010001000000000000000000000029
:1004D000000000000000000000007E0F00D4FFFFBD
:1004E000FFC70000007800000000000000002A2B79
:1004F00028000000000000000000000000000000D4
:100500000029000000002C1E34202122243426273C
:10051000252E362D3738271E1F202122232425265D
:100520003333362E37381F0405060708090A0B0C2B
:100530000D0E0F101112131415161718191A1B1C73
:100540001D2F3130232D350405060708090A0B0C31
:100550000D0E0F101112131415161718191A1B1C53
:100560001D2F3130354C7267626C69676874206486
:10057000697361626C65205B454550524F4D5D3A31
:10058000207267626C696768745F636F6E66696723
:100590002E656E61626C65203D2025750A007267CC
:1005A000626C6967687420656E61626C65205B458A
:1005B0004550524F4D5D3A207267626C69676874AE
:1005C0005F636F6E6669672E656E61626C65203D64
:1005D0002025750A007267626C6967687420746F01
:1005E00067676C65205B454550524F4D5D3A207200
:1005F00067626C696768745F636F6E6669672E65B2
:100600006E61626C65203D2025750A0044454255A7
:10061000473A2064697361626C65642E0A00444540
:100620004255473A20656E61626C65642E0A000A85
:10063000002530325820006B6579626F6172645F0B
:100640007265706F72743A2000290A002575002FB8
:10065000002575005D280025640020002564002029
:100660000025640020002564007C002530325800FD
:100670006D6F7573656B6579205B62746E7C782035
:1006800079207620685D287265702F61636C293A45
:10069000205B007267626C696768745F636F6E6687
:1006A00069672E7370656564203D2025640A0072B9
:1006B00067626C696768745F636F6E6669672E76E0
:1006C000616C203D2025640A007267626C6967686E
:1006D000745F636F6E6669672E736174203D2025B9
:1006E000640A007267626C696768745F636F6E6644
:1006F00069672E687565203D2025640A0072676869
:100700006C696768745F636F6E6669672E6D6F648E
:1007100065203D2025640A007267626C6967687411
:100720005F636F6E6669672E656E61626C65203D02
:100730002025640A007267626C696768745F636F82
:100740006E66696720454550524F4D3A0A00726700
:10075000626C696768745F696E6974207267626C45
:10076000696768745F636F6E6669672E6D6F646535
:10077000203D20302E2057726974652064656661C3
:10078000756C742076616C75657320746F204545B7
:1007900050524F4D2E0A007267626C696768745F31
:1007A000696E6974206565636F6E66696720697339
:1007B000206E6F7420656E61626C65642E0A007233
:1007C00067626C696768745F696E697420737461CD
:1007D0007274210A007267626C696768745F696E7F
:1007E00069742063616C6C65642E0A000A00253010
:1007F0003862003A200025303258000A722F6320F8
:1008000030313233343536370A0032190A00047F6A
:100810003F1F643214643214783C1E1E140A050A09
:100820000025303258006B6579626F6172645F73C6
:1008300065745F6C65643A20007267626C69676812
:100840007420736574207370656564205B4E4F453A
:100850004550524F4D5D3A2025750A005B735D008F
:100860004B6579626F6172642073746172742E0AD1
:10087000005B435D005B445D005B535D005B575D67
:10088000005B525D0009027B00040100A0FA09042C
:1008900000000103010100092111010001224000B3
:1008A0000705810308000A09040100020300000093
:1008B0000921110100012222000705820320000105
:1008C00007050303200001090402000103000000E2
:1008D0000921110100012281000705840320000A7B
:1008E0000904030002030000000921110100012294
:1008F00022000705850320000107050503200001EC
:100900001201100100000008AFDE1309010001020E
:1009100003010403300000001003640075006D0043
:1009200062007000610064000000160369006D0041
:10093000630068006900700077006F006F0064005A
:1009400000000403090411241FBECFEFDAE0DEBF6C
:10095000CDBF04B603FE27C08091A4029091A502EA
:10096000A091A602B091A7028730904BA740B04B50
:10097000D1F41092A4021092A5021092A602109235
:10098000A70214BE84B7877F84BF0FB6F894A895DA
:1009900080916000886180936000109260000FBEBB
:1009A000E0E0F8E3099522E0A6EAB1E001C01D927B
:1009B000A43AB207E1F711E0A0E0B1E0E0E7FAE61F
:1009C00002C005900D92A63AB107D9F70E9475288A
:1009D0000C94EB340C940000FF93EF93E091A6018C
:1009E000F091A701309709F00995EF91FF910895D3
:1009F000FC018591803011F0EFDFFBCF0895FF27D8
:100A0000E0E230E247FF0CC0419597FF09C0EDE2FC
:100A10006095709580959095611D711D811D911D4A
:100A200027FF02C0219530E350E2AA27660F771F07
:100A3000881F991FAA1FA41710F0A41B63955A952D
:100A4000A9F7AA3008F0A95FA05DAF93F3956115EF
:100A500071058105910541F7ED3211F4EF93F3959E
:100A6000F21718F43F93F395FBCF8F91B5DFFA950A
:100A7000E1F70895E991F9918591803021F085326F
:100A800019F0AADFF9CF089520E0E8945591553286
:100A9000C1F3503311F4689455915A3348F45053CC
:100AA00090F3220F022E220F220F200D250FF4CFDC
:100AB0000EF4219589919991533619F3533729F101
:100AC000533559F1BC0188279927E8945C3621F405
:100AD0008991999168945591543639F446EF7EF096
:100AE00077FF0DC08FEF9FEF0AC055374AE039F00E
:100AF000583540E121F0523642E009F00895FF9365
:100B0000EF937DDFEF91FF91B7CFFF93EF93FC0160
:100B100081918030B9F360DFFBCFFF93EF9368DF03
:100B2000F1CFDF93CF93CDB7DEB72596A3DFCF917B
:100B3000DF910895E8EDF0E080818E7F8083109250
:100B4000E2001092DA001092E100A0EEB0E08C9189
:100B500081608C9380818F77808319BCA7EDB0E092
:100B60008C918E7F8C9380818F7E80831092870200
:100B700008952091E4003091E50095E6A9012091C7
:100B8000EC00822F817020FF06C08091E80080FF7A
:100B900006C080E008952091E80022FD1AC08091EF
:100BA0009F02882389F0853089F08091EB0085FDD4
:100BB0000FC02091E4003091E50042175307F9F28D
:100BC0009150E1F684E0089582E0089583E008956D
:100BD00081E00895EF92FF920F931F93CF937C01D2
:100BE0008B010E94B905C82F811117C08091E800C0
:100BF00085FD0BC08091E8008E778093E8000E940D
:100C0000B905882399F3C82F08C0F70181917F01A6
:100C10008093F1000150110949F78C2FCF911F915A
:100C20000F91FF90EF900895CF93FC0180919F0268
:100C3000843001F5C091E900CF702091EC00922F33
:100C4000917020FD90E8C92B82E08093E9008091AB
:100C5000E80080FF0CC050E040E060E270E0CF01AF
:100C60000E94EA058091E8008E778093E800CF70BB
:100C7000C093E900CF9108958091970287FF13C038
:100C80008091E80082FF06C08091E8008B77809316
:100C9000E80004C080919F028111F2CF08958091F5
:100CA0009F028823D9F38091E80080FFF8CF8091DC
:100CB000E8008E77ECCF982F9093E900242F762FC1
:100CC00050E0891731F07091EC002091ED005091C7
:100CD000F00021FD07C09F5F973071F78093E90016
:100CE00081E008953091EB003E7F3093EB0030912E
:100CF000ED003D7F3093ED003091EB00316030939B
:100D0000EB007093EC002093ED005093F0002091E5
:100D1000EE0027FDE0CF80E00895CF92DF92EF92C2
:100D2000FF920F931F93CF93DF93C8EDD0E088819C
:100D30008F7E8883E7EDF0E080818160808384E0AE
:100D400082BF81E08093870288818E7F888302EE54
:100D500010E0F80110821092DA0081EEC82ED12C3A
:100D6000F601108288818F778883888180688883E4
:100D700088818F7D888319BC10929F021092960201
:100D8000109295021092940290EEE92EF12CF70148
:100D900080818B7F808388818160888342E060E0EE
:100DA00080E00E945B06F60180818E7F8083F801DF
:100DB000808181608083808188608083F701808169
:100DC0008E7F8083888180618883DF91CF911F919E
:100DD0000F91FF90EF90DF90CF900895FC018091EC
:100DE0009D0290919E0286179707A0F061157105EC
:100DF00029F49091E8009E779093E80090E06115C7
:100E0000710551F4911108C08091E80082FF34C04F
:100E100080E00895BC01F2CF80919F028823C1F148
:100E20008530C1F18091E80083FD30C08091E800F9
:100E300082FDEACF8091E80080FFE1CF8091F3004E
:100E40002091F200382F6115710519F02830310515
:100E500058F091E02830310509F090E02091E80049
:100E60002E772093E800CBCF81918093F1006150E1
:100E700071092F5F3F4FE7CF80919F02882341F098
:100E8000853041F08091E80083FFBECF81E0089576
:100E900082E0089583E00895089580918B0208957B
:100EA00090916E02803F59F480916F0287FF0DC0D0
:100EB00010926F0291110BC01092690208C0813F1D
:100EC00081F480916F0218169CF3992381F0809130
:100ED000700290917102892B09F064C01092660231
:100EE0000895823F49F497FFF0CF10926E028091EF
:100EF0006F028111ECCFE0CF833F19F41916ACF3E8
:100F0000E4CF20917002893F29F41216F4F6109272
:100F10007002DBCF8A3F19F427FFD7CFF8CF20919B
:100F200071028B3F29F427FFD0CF10927102CDCFF1
:100F30008C3F19F41216CCF3C8CF843F31F4809162
:100F40006D028E7F80936D02C0CF853F21F480912A
:100F50006D028D7FF7CF863F21F480916D028B7FEC
:100F6000F1CF873F21F480916D02877FEBCF883FDF
:100F700021F480916D028F7EE5CF8D3F31F4809119
:100F80004F028E7F80934F02A0CF8E3F21F480913D
:100F90004F028D7FF7CF8F3F09F097CF80914F029F
:100FA0008B7FF0CF089580914F0280FD16C081FDA8
:100FB00016C082FD16C0809166028823A1F0883297
:100FC00080F428E0829FC001112468E270E00E9452
:100FD0003C30862F672B39F0089582E0089584E035
:100FE000089588E0089581E0089580914F0280FD82
:100FF00014C081FD14C082FD16C08091690288234F
:1010000081F0843180F422E3829FC001112464E1E5
:1010100070E00E943C30862F08958CE0089589E1AD
:10102000089585E0089582E30895803F31F40E9499
:10103000F507819580936F020895813F19F40E940E
:10104000F507F8CF823F31F40E94F5078195809330
:101050006E020895833F19F40E94F507F8CF893F87
:1010600029F40E94D3078093700208958A3F21F4E7
:101070000E94D3078195F7CF8B3F31F40E94D307AD
:1010800081958093710208958C3F19F40E94D307D3
:10109000F8CF843F31F480916D02816080936D02BE
:1010A0000895853F21F480916D028260F7CF863FDD
:1010B00021F480916D028460F1CF873F21F480910B
:1010C0006D028860EBCF883F21F480916D028061D2
:1010D000E5CF8D3F31F480914F02816080934F02C4
:1010E00008958E3F21F480914F028260F7CF8F3FA9
:1010F000B9F780914F028460F1CF87E797E790932B
:1011000001088093000888E19AE00FB6F894A8954A
:10111000809360000FBE90936000FFCF9C014FB79B
:10112000F8948091810290918202A0918302B09103
:1011300084024FBF821B930B08952FB7F8948091C0
:10114000810290918202A0918302B09184022FBF0C
:1011500008959C01FC0132969FEF80E04191461773
:1011600051F09F3F19F4411101C0982F8F5F8630D5
:10117000A9F79F3F09F40895290F311D97FD3A956E
:10118000F90162830895829590E09C01220F331F3C
:10119000220F331F2C7C95958795959587958373A2
:1011A000282B30E0C901880F991F8A7A3595279539
:1011B0002575822B0895CF92DF92EF92FF926C01FA
:1011C000EE24FF2420E0C114D104E104F10419F05D
:1011D000C701B60120E1C72ED82EE92EFF24C11485
:1011E000D104E104F10419F0285FC701B6016B01D5
:1011F0007C0154E0F694E794D794C7945A95D1F7BC
:10120000C114D104E104F10419F02C5FC701B60147
:101210006B017C0142E0F694E794D794C7944A9519
:10122000D1F7C114D104E104F10419F02E5FC70114
:10123000B6019695879577956795672B682B692BEF
:1012400009F02F5F822FFF90EF90DF90CF900895ED
:1012500080914A02811110924A020895E92FEE0FFF
:10126000EE0F9E0F890F982F97708695869586951D
:1012700025E0829FF0011124E95CFD4F50E040E041
:1012800080E0219130E0092E02C0369527950A941E
:10129000E2F721703327042E01C0220F0A94EAF7E7
:1012A000822B4F5F5F4F4530510559F70895E92F65
:1012B000EE0FEE0F9E0F890F982F977041E001C03F
:1012C000440F9A95EAF786958695869595E0899FCD
:1012D000F0011124E95CFD4F30E020E070E0519115
:1012E000DF011197CB01022E02C0969587950A94D3
:1012F000E2F7817081958527842385278C932F5F62
:101300003F4F2530310559F708958091360290916D
:101310000502981301C008958F5F8770FACF20915E
:10132000DA013091DB012817390771F09093DB0166
:101330008093DA01E0915802F0915902309721F040
:101340000084F185E02D099408952091D801309111
:10135000D9012817390771F09093D9018093D801EA
:10136000E0915802F0915902309721F00680F78100
:10137000E02D09940895E0915802F09159023097B8
:1013800021F00190F081E02D099480E00895FA01A8
:10139000811101C0FB01099480917802982F9E7FF2
:1013A00029F4817082608093780208958635E8F38D
:1013B00081708465F8CFAF92BF92DF92EF92FF9277
:1013C0000F931F93CF93DF93082F162FE901E42F7C
:1013D000F0E0E950FE4F611110C0E4915E2F4E2FF6
:1013E0004983E8835A83DF91CF911F910F91FF903A
:1013F000EF90DF90BF90AF900895E62EF12C4491CE
:10140000D42EE42FF0E026E0829FC00111242FEFBC
:1014100030E0B9010E942830802F90E0880F991F9A
:1014200055E5569FD001579FB00D11248A1B9B0B89
:10143000982F990F890F5901AE18BF08AE9ED001A1
:10144000AF9EB00DBE9EB00D11245B2F189F800182
:101450001124012F11275901A01AB10AAE9E800153
:10146000AF9E100DBE9E100D11245901A81AB1088F
:10147000AE9CC001AF9C900DBE9C900D1124892F95
:101480009927281B390B2E9FC0012F9F900D3E9F3F
:10149000900D1124E92F62307105A1F050F461150F
:1014A000710509F49DCF6130710581F0EB2F512F4B
:1014B00097CF6430710569F080F06630710509F4EA
:1014C0008FCFF4CFE42F4B2F592F8ACFE42F412F0A
:1014D00087CFEB2F542F492F83CF4B2F5D2DE12F3B
:1014E0007FCF9091550292FF06C0282F2871283097
:1014F000F9F4877F846093FF06C0282F2871283174
:10150000F1F4877E84612091560220FF06C0382FB7
:1015100038713830D9F4877F816021FF06C0282FC9
:1015200028712831D1F4877E816194FD877E0895EA
:10153000282F24712430F9F68B7F8860DCCF282F88
:101540002471243101F78B7E8861DDCF382F317112
:10155000313019F78E7F8860E0CF282F217121313B
:1015600021F78E7E8861E1CFCF92DF92EF92FF92DA
:101570006B017C010E94DB0880FF0BC02E9A81FF6B
:101580000AC0299AC701B601FF90EF90DF90CF9073
:1015900008952E98F4CF2998F5CF9FB7F89410921C
:1015A00085029FBF90919F02943009F048C020911E
:1015B000E9002F703091EC00932F917030FD90E88E
:1015C000922B25E02093E9002091EB0020FF34C00E
:1015D0002091EE0027FF30C020915002222321F0FD
:1015E0002091E80025FF28C01092500226E030919B
:1015F000E80035FF14C08093F1008091E80085FD7C
:1016000027C08091E80080FFFCCF8091E8008E77B2
:101610008093E8009F709093E90080E008953091F6
:101620009F02343049F43091EB0035FD05C0215064
:1016300041F481E0809350029F709093E9008FEF16
:101640000895EFE9FFE03197F1F700C00000CFCF38
:101650008FB7F89421E0209385028FBFDBCFCF9323
:10166000DF9300D00F92CDB7DEB790919F029430F8
:1016700011F589837B836A839093E9008FEF9091C2
:10168000E800815095FD06C095ED9A95F1F70000B0
:101690008111F5CF8091E80085FF0DC050E040E05A
:1016A00063E070E0CE0101960E94EA058091E800B7
:1016B0008E778093E8000F900F900F90DF91CF917D
:1016C0000895BC0184E00C942F0BBC0183E00C94C2
:1016D0002F0B9C0184E08093E9009FEF8091E8004C
:1016E000915085FD06C085ED8A95F1F700009111B6
:1016F000F5CF8091E80085FF0CC050E040E066E047
:1017000070E0C9010E94EA058091E8008E7780931D
:10171000E8000895CF93DF93EC0181E08093E90026
:101720008FEF9091E800815095FD06C095ED9A9558
:10173000F1F700008111F5CF8091E80085FF14C01A
:1017400050E040E068E070E0CE010E94EA05809140
:10175000E8008E778093E80088E0FE01ACE8B2E014
:1017600001900D928A95E1F7DF91CF9108958091D4
:10177000780280FD0AC0E6EBF1E01182108212824D
:10178000339651E0E23CF507C1F7239A35B1377F34
:1017900025B128604FB7F89486EB91E0FC01519198
:1017A000CF0168E025B9000000C057FF35B9550FDB
:1017B000000000C000C000C035B900C06A9591F7B4
:1017C000F1E0823C9F0751F74FBF8FE594E001970E
:1017D000F1F700C000000895EF92FF921F93CF939E
:1017E000DF93EC0186EBE82E81E0F82E10E08C818F
:1017F000970140917B0260917A02810F0E94DB0980
:10180000115C83E0E80EF11C1C3F89F70E94B70BC6
:101810009A818C8190FF08C08F5F8C83DF91CF917C
:101820001F91FF90EF9008958150F7CFCF92DF92F4
:10183000EF92FF920F931F93CF93DF93FC0182816E
:10184000DD24DA9480FD02C0DD24D394C6EBD1E020
:1018500010E000E0198218821A8294E0E92EF12C3F
:10186000C12C8091B3018C0D8530CCF18370082E92
:10187000000C990B8017910791F480917B028E9D4B
:10188000A0018F9D500D112455954795559547956D
:101890009E0160917A02809179020E94DB09CD0C51
:1018A000F1E0EF1AF108E9F60F5F1F4F23960430BD
:1018B000110581F60E94B70B8091B30191E0D91216
:1018C00014C0811110C083E08093B301DF91CF91E8
:1018D0001F910F91FF90EF90DF90CF90089587FFB9
:1018E000C6CF8C5FC4CF8150EFCF90E0019683705C
:1018F0009927EACF0F931F93CF93DF93C6EBD1E0E5
:10190000FE01118210821282339681E0E23CF807D8
:10191000C1F710E000E08091B401082E000C990B93
:10192000081719078CF180911001082E000C990BF3
:10193000801791074CF19E0140917B0260917A02E1
:10194000809179020E94DB090F5F1F4F23960430BC
:10195000110509F70E94B70B80910F019091B40116
:10196000980F9093B40120911001280F209310013B
:10197000121614F493301CF0819580930F01DF91BF
:10198000CF911F910F910895198218821A82DCCF8E
:101990008F929F92AF92BF92CF92DF92EF92FF927F
:1019A0000F931F93CF93DF93EC014C81042F10E032
:1019B0009801D8010E9493319B01AC010E945E31D5
:1019C0004B015C01E0E2F0E0E01BF10BA5E5B0E0CB
:1019D000AC019B010E945E316B017C019F01DF0124
:1019E0000E945D309B01AC010E9469319B01AC01FA
:1019F000280D391D4A1D5B1DC701B6010E947131BA
:101A0000F22E822F90E039E23F15E0F143E0249F6F
:101A10009001112435952795122F109596EBC92E1C
:101A200091E0D92E00E085E5E82EEF18802F86950D
:101A3000C9F58E2D9601412F60917A020E94DB0933
:101A40000F5F53E0C50ED11C043081F70E94B70B25
:101A50009C8181E0992319F0903219F48FEF8093E3
:101A6000110180911101890F8C83DF91CF911F911A
:101A70000F91FF90EF90DF90CF90BF90AF909F902D
:101A80008F90089525E530E0A901481B590BCA0144
:101A90009A01220F331F280F391F37FFBBCF2F5F4B
:101AA0003F4FB8CF8F2DC6CFEF92FF920F931F936A
:101AB000CF93DF938C01C6EBD1E0F12CE12CF80140
:101AC000948160917A0280917902F2E0EF16F1043C
:101AD000FCF49923F9F09E0140917B020E94DB09FE
:101AE0002FEFE21AF20A239684E0E816F10439F7A0
:101AF0000E94B70BF801848190E0019681709927CC
:101B00008483DF91CF911F910F91FF90EF90089503
:101B1000992309F39E0140E0E1CF9091780290FF74
:101B20000CC0E6EBF1E0818360834283339691E061
:101B3000E23CF907C1F70C94B70B08950F931F937C
:101B4000CF93DF9300D00F92CDB7DEB78C01809199
:101B5000B50181110AC09E012F5F3F4F4FEF6FEF1C
:101B60000E94DB098A818093B501F80164816130AC
:101B700069F08091B50140E0662361F040E0623099
:101B800011F44091B50180E060E004C06091B501BE
:101B900040E080E00E948D0DF801848190E0019684
:101BA00063E070E00E943C3084830F900F900F90B0
:101BB000DF91CF911F910F910895CF93DF9300D0C4
:101BC0000F92CDB7DEB79091780290FF0AC09E01C8
:101BD0002F5F3F4F0E94DB094B8169818A810E9400
:101BE0008D0D0F900F900F90DF91CF910895CF93AF
:101BF000DF93EC01E8E7F2E0438162818C810E948F
:101C0000DD0D8C818F5F8C83DF91CF9108958F9252
:101C10009F92AF92BF92CF92DF92EF92FF920F937B
:101C20001F93CF93DF9369E771E021E5822E22E0D5
:101C3000922EC0E0EE24E394F12CDB018D91BD01E6
:101C4000E82FE295EF70F0E091A18F70870101C05D
:101C5000000F8A95EAF7892F802B81A392A1D02FBC
:101C6000D0959D2392A3B0EABA95F1F79DE7C92ECE
:101C700091E0D92E50E040E020E0D6013D916D0189
:101C8000A32EA2948FE0A822B12CD50190968C911E
:101C900090E03F7002C0959587953A95E2F780FDF8
:101CA00047C08E2D042E01C0880F0A94EAF7282B16
:101CB0004F5F5F4F4530510501F781A18D2381A30F
:101CC00082A1082B02A3F4018081281799F12083B7
:101CD00081E0C82BFFEF8F1A9F0A81E06D377807EC
:101CE00009F0ABCFCC2341F181E08093B2010E9497
:101CF0009D089093B1018093B0018091B0019091C3
:101D0000B1010E948E080697D8F08091510280930D
:101D10007D028091520280937E02809153028093D3
:101D20007F0280915402809380021092B20108C019
:101D300080E0BDCF80E0CDCF8091B2018111DDCFB9
:101D40008C2FDF91CF911F910F91FF90EF90DF903B
:101D5000CF90BF90AF909F908F900895CF9384E0E5
:101D600090E00E94F730C82F81E290E00E94F730A7
:101D7000982F8C2FCF9108950F931F93CF93DF93BC
:101D8000C42FD0E0CC0FDD1F2AE0629FC00DD11D13
:101D9000112438E2839FC00DD11D1124CE018696F7
:101DA0000E94F730082F10E0102F0027CE018796F1
:101DB0000E94F7309801282BC901DF91CF911F9124
:101DC0000F910895462F843038F4743028F465302C
:101DD00018F4672F0C94BC0E90E080E00895CF9328
:101DE000DF930E94E20EEC0182389105A9F1D8F54B
:101DF0008133910509F496C048F58932910509F4BB
:101E00008AC08A9709F495C0C11521E5D20708F068
:101E1000BCC0C11530E5D30708F014C1C83ED105D8
:101E200008F09CC0C03ED10560F5C83AD10508F065
:101E300087C0C53AD10508F0FDC0C130D10509F110
:101E40002097F9F0C430D105E0F440C08533910506
:101E500009F45AC0C997C1F680915502837089F080
:101E6000C0EED0E00EC0833E910599F170F4803E43
:101E7000910501F1823E910539F68091550282FD6E
:101E800021C0CE01DF91CF910895863E910561F189
:101E9000873E910571F1843E910509F0B5CF80919F
:101EA000560281FFEECF80915502C7EED0E084FD4F
:101EB0000DC0E7CF8091550280FD12C1909156026E
:101EC00090FFDFCFC3EED0E084FFDBCFD0E0C0E0F7
:101ED000D8CF8091550282FD06C19091560290FDA7
:101EE000BFCF84FFCECFF2CF8091550283FDDDCFEF
:101EF000C8CF8091550283FDF9C09091560291FFA1
:101F0000F0CFC4EED0E0BDCF8091550285FFB9CFB0
:101F1000C9E2D0E0B6CF8091550285FFB2CFC5E3CC
:101F2000D0E0AFCF8091550286FFABCFCAE2D0E0C0
:101F3000A8CF8091550286FFA4CFC1E3D0E0A1CF06
:101F4000CF3BD10518F6C85AD0E0CC0FDD1FC55BDA
:101F5000DE4F0990D881C02DD46493CFC11540E2E3
:101F6000D40758F4C11581E0D80708F08ACFC03FE4
:101F7000D10508F4ABCFD06584CFC11590E4D90763
:101F800008F4A4CFDF70D06A7CCFC11525E5D20755
:101F900000F5C11534E5D30708F08AC0C11543E543
:101FA000D40708F071C0C11582E5D80708F467C0EE
:101FB000CE018370992721E030E002C0220F331F49
:101FC0008A95E2F7C695C69580E2C89FE001112484
:101FD00052C0C11599E5D907A8F4C11528E5D20763
:101FE00008F06BC0C11536E5D30708F06FCF8C2F12
:101FF0000E94710AC82FD0E0DC2FCC27CC27DF71DC
:10200000D0623FCFC1154AE5D40708F45BC0CE01CA
:1020100090568115904208F059CF8D2F8F710E94F4
:10202000710A90E0982F882788279F719C012C2B9C
:10203000E901E6CFC55AD0E0C85BDE4FC881D0E0E9
:10204000D0641FCFCE01E4E096958795EA95E1F73D
:1020500083702C2F26952695237040E2249F9001B3
:102060001124382B8C2F8370C1E0D0E002C0CC0F3C
:10207000DD1F8A95E2F7C22BD32BDC6802CFDC2F61
:10208000CC27C16FD06AFDCECE018370992721E0A5
:1020900030E002C0220F331F8A95E2F7C695C6953D
:1020A00090E2C99FE0011124C22BD32BDA68E9CE5C
:1020B000DC2FCC27C46FD06AE4CEDC2FCC27C06FD6
:1020C000D06ADFCE8C2F8F700E94710A34E0D695D3
:1020D000C7953A95E1F7CF709C2FEC01D069D1CE2E
:1020E000C9E3D0E0CECEC2EED0E0CBCEC6EED0E09B
:1020F000C8CEBF92CF92DF92EF92FF920F931F93C1
:10210000CF93DF938C01C090A002D090A102E09009
:10211000A202F090A30280914B0290914C02A091F8
:102120004D02B0914E02C82AD92AEA2AFB2ACFE1F1
:10213000D0E0BC2ED701C6010C2E04C0B695A795E1
:10214000979587950A94D2F780FD0EC0219788F75E
:10215000B12C8B2DDF91CF911F910F91FF90EF90BC
:10216000DF90CF90BF900895B8018C2F0E94EF0EA2
:10217000019761F3EECFCF93DF93EC010E947910CA
:10218000BE01DF91CF910C94EF0E0E94BB10292F5E
:102190002F7092959F7092509E3078F4E92FF0E066
:1021A000E351FB4C0C945030803F19F020F4883EF2
:1021B00020F481E00895843FE1F380E00895883EB3
:1021C000C0F3813FD1F7F5CF822F8695869586950E
:1021D00008956F927F928F929F92AF92BF92CF920B
:1021E000DF92EF92FF920F931F93CF93DF938EE4D2
:1021F000C82E84E0D82E98E5E92EF12CE701A897A7
:1022000036011BC0F50185909490692DC8010E948C
:102210000B31682DC80101960E940B3182E0A80E97
:10222000B11C0E5F1F4FC017D10761F78AE0680E1F
:10223000711C2A96CE15DF0529F08E010A5011096E
:102240005301E0CF7E0188E2E80EF11C88E2C80E5F
:10225000D11C88EFE816F10489F6DF91CF911F9128
:102260000F91FF90EF90DF90CF90BF90AF909F9035
:102270008F907F906F900895CF93DF93C6ECD0E05E
:1022800060E0CE010E940B312196C11584E0D80791
:10229000B9F7DF91CF910895CF93C82F6FEF8111D8
:1022A00061E282E290E00E940B316FEFC11166E0C3
:1022B00083E290E00E940B316FEFC11165E184E28F
:1022C00090E0CF910C940B318091770283FF7EC018
:1022D00080E796E00E94F80480916D021F928F9330
:1022E0008BE696E09F938F930E94910589E696E096
:1022F0000E94F80480916E02282F082E000C330BE8
:102300003F938F9386E696E09F938F930E9491056B
:1023100084E696E00E94F80480916F02282F082E30
:10232000000C330B3F938F9381E696E09F938F933E
:102330000E9491058FE596E00E94F804809170025A
:10234000282F082E000C330B3F938F938CE596E0DB
:102350009F938F930E9491058AE596E00E94F8046E
:1023600080917102282F082E000C330B3F938F931E
:1023700087E596E09F938F930E94910584E596E010
:102380000E94F804809169021F928F9381E596E084
:102390009F938F930E9491058FE496E00E94F8042A
:1023A00080914F021F928F938CE496E09F938F93BE
:1023B0000E94910589E496E00E94F8048DB79EB7CB
:1023C0004C960FB6F8949EBF0FBE8DBF0E949D081D
:1023D0009C0190916E0280916F02982B21F03093B6
:1023E0006B0220936A029091700280917102982B87
:1023F00021F03093680220936702E0915802F09137
:102400005902309749F082E080936C020480F58194
:10241000E02D8CE692E009940895EF92FF920F93DD
:102420001F93CF93DF938091490290914802892BAB
:1024300090914702892B8093A80190914A02992399
:1024400091F0892B8093A80120E08AEA91E0FC01B9
:102450003191CF0131112F5FF1E0803B9F07B9F738
:1024600021110E942809E0915802F09159023097F9
:10247000C9F10280F381E02D88EA91E0099580910D
:10248000770282FF2FC080FF04C087E396E00E949E
:10249000F804C8EAD1E080EBE82E81E0F82E01E3F1
:1024A00016E08091770280FF0BC088811F928F9386
:1024B0001F930F930E9491050F900F900F900F9014
:1024C0002196EC16FD0669F78091770280FF0AC01D
:1024D0008FE296E0DF91CF911F910F91FF90EF90E7
:1024E0000C94F804DF91CF911F910F91FF90EF9022
:1024F000089510924802109247020E940D1286E041
:10250000ECE6F2E0DF011D928A95E9F7109269028C
:102510001092660210924F020E94641190E080E0D7
:102520000E94A50990E080E00C948F090E94B40AF3
:102530006093A0027093A1028093A2029093A302E1
:102540000C9479120F931F936091A0027091A102D5
:102550008091A2029091A3028B019C010670112729
:1025600022273327063011052105310529F468603B
:102570001F910F910C949612677FFACF0F931F93C0
:1025800041E050E060E070E004C0440F551F661F5A
:10259000771F8A95D2F7CB01BA0160957095809527
:1025A00090950091A0021091A1022091A202309179
:1025B000A30260237123822393231F910F910C9414
:1025C0009612909146028095892380934602282F87
:1025D000277071F4282F082E000C330B9217130666
:1025E00039F08595859585950E94BE121092460218
:1025F00008950F931F9341E050E060E070E004C045
:10260000440F551F661F771F8A95D2F78091A0024D
:102610009091A102A091A202B091A3028A019B0114
:10262000082B192B2A2B3B2BC901B8011F910F91A5
:102630000C94961260934B0270934C0280934D025F
:1026400090934E020C947912882341F080959091DA
:1026500049028923809349020C940D12089588231E
:1026600039F090914902982B909349020C940D12E5
:1026700008958823F1F19CEF980F913A78F4EAEAF3
:10268000F1E020EB31E09191891303C0DF01119754
:102690001C922E173F07B9F70C940D1290E2980F79
:1026A000983088F4877021E030E0A90102C0440F1F
:1026B000551F8A95E2F7CA018095909149028923B6
:1026C00080934902E9CF9BE5980F933020F490E086
:1026D00080E00C94A50998E5980F973120F490E0DC
:1026E00080E00C948F09803F20F00E9450070C94EA
:1026F00064110895CF93C82F882309F456C08CEF36
:102700008C0F813AF8F4EAEAF1E080EB91E0DF0126
:102710002D91C21759F08A179B07D1F76C2F88EAC1
:1027200091E00E94A908CF910C940D122191C2133F
:1027300003C0DF0111971C928E179F07B9F70E9403
:102740000D12ECCF80E28C0F883068F4C77021E066
:1027500030E001C0220FCA95EAF780914902822B2E
:1027600080934902E0CFEBE5EC0FE33040F4F0E07A
:10277000E85BFE4F808190E0CF910C94A509E8E5DD
:10278000EC0FE73150F4F0E0EE0FFF1FE55BFE4F7A
:1027900080819181CF910C948F09C03F30F08C2FB4
:1027A0000E941508CF910C946411CF910895CF9396
:1027B000C82F0E947A13C93349F42FEF87EE93E0B4
:1027C000215080409040E1F700C000008C2FCF9155
:1027D0000C9439130F931F93CF93DF93C42FD22FF1
:1027E000FC0182818823A1F04093FD010E949D0895
:1027F0009093D7018093D601C77081E001C0880F04
:10280000CA95EAF7DF91CF911F910F910C942F1386
:102810001091FD01141335C08091D6019091D7011C
:102820000E948E08883C910560F5C0E2CD0F1D170F
:10283000B9F080E2810F883040F4177081E001C068
:10284000880F1A95EAF70E942413C83048F481E0F3
:102850009D2F977001C0880F9A95EAF70E942F1359
:10286000802F0E94D713C83098F4D77081E001C040
:10287000880FDA95EAF7DF91CF911F910F910C94B1
:102880002413C77081E001C0880FCA95EAF7F3CF1F
:10289000DF91CF911F910F91089510926202809164
:1028A000770280FF08C085E394E09F938F930E9496
:1028B00091050F900F900895809178028E7F8093FC
:1028C00078028091770280FF0CC01F921F928AE6E7
:1028D00093E09F938F930E9491050F900F900F901C
:1028E0000F900E944D142FEF80E792E0215080401E
:1028F0009040E1F700C000000C94B70B8F929F92BC
:10290000AF92BF92CF92DF92EF92FF920F931F93FD
:10291000CF93DF93FC01B280948081E08483C2EC8A
:10292000D1E006EB11E08BE4A82E88248394EE24FA
:10293000EA94F12C2BE4C22ED12C91101DC01B82E5
:102940001A8298014A81698188810E94DB09259653
:102950000D5F1F4F81E0C63DD80779F7DF91CF911A
:102960001F910F91FF90EF90DF90CF90BF90AF90AD
:102970009F908F900C94B70B2B81222309F121504B
:102980002B833C818A2D821B311101C0822F9091B3
:102990007B02899FC0011124B6010E9428306A83FE
:1029A000211104C0332311F01C82AB8222E02B15CD
:1029B00040F280917902888380917A028983C1CF25
:1029C0000E94DA30823091400CF0BBCF82E08B1550
:1029D000C0F40E94DA30B7010E943C30888322E0C4
:1029E0002B1590F40E94DA3020917A022695622FFE
:1029F00070E00E943C30280F29831A82AB828C82BF
:102A0000A0CF80917902EACF20917A02F5CFCF93BF
:102A1000DF93EC016C8170E090E080E00E94EC328A
:102A200020E030E04FE753E40E940F322BED3FE00F
:102A300049E450E40E9415340E9482340E94893295
:102A40002BE43AE34EE25FE30E94A23120EF3BEF3A
:102A500048ED52E40E9415340E94BB32462FE8E74D
:102A6000F2E0628181810E94DD0D8C818F5F8C8319
:102A7000DF91CF9108956CEE7EEF90E080E00E94B0
:102A8000293160E082E090E00E940B3160E083E059
:102A900090E00E940B3110924B0210924C02109267
:102AA0004D0210924E0260E084E090E00E940B31F3
:102AB00060E081E290E00E940B3160E085E090E010
:102AC0000E940B3160E086E090E00E940B316FEFD6
:102AD00087E090E00E940B3140E050E0BA0188E0CE
:102AE00090E00E941D3160E08DE090E00E940B318B
:102AF00040E050E0BA0188E190E00E941D3160E0C2
:102B000087E190E00E940B3140E050E0BA018CE197
:102B100090E00E941D3160E080E290E00E940B3165
:102B200040E050E0BA018FE090E00E941D3140E0AB
:102B300050E0BA0183E190E00C941D31CF92DF9216
:102B4000EF92FF926B017C010E94CC09B701A601B4
:102B500088E090E0FF90EF90DF90CF900C941D31D3
:102B60002F923F924F925F926F927F928F929F929D
:102B7000AF92BF92CF92DF92EF92FF920F931F938B
:102B8000CF93DF9300D000D0CDB7DEB7182F462EFD
:102B9000542E222E9091780290FF46C0E92FE695A0
:102BA000AE2FB0E0A35EBE4F8C91809361029E7FFA
:102BB000923009F050C09E012F5F3F4F812F0E943D
:102BC000DB094B8169818A810E948D0D1093790206
:102BD00040927A0250927B02222009F49CC06091BC
:102BE00078027091790280917A0290917B020E9422
:102BF0009E158091770280FF17C080917B021F9203
:102C00008F9380917A021F928F93809179021F9205
:102C10008F938BEC93E09F938F930E9491050FB657
:102C2000F894DEBF0FBECDBF0F900F900F900F90A6
:102C3000DF91CF911F910F91FF90EF90DF90CF9098
:102C4000BF90AF909F908F907F906F905F904F90CC
:102C50003F902F900895823019F450907B02B6CFA8
:102C6000863019F410917902B1CF8930D9F38931C6
:102C700009F0ACCFE9512E2F21702C838E2F809537
:102C80008170382EE695F0E0E95EFB4FC590D49058
:102C9000DD2436EBA32E31E0B32E912C812CF12CC8
:102CA000E12C40EF642E43E0742EC4019695879585
:102CB000969587952C81012F21112BC0080F8091AB
:102CC000770280FF11C0DF92CF921F923F921F9236
:102CD0000F93FF92EF927F926F920E9491050FB631
:102CE000F894DEBF0FBECDBF9501452D642D802F1A
:102CF0000E94DB099FEFE91AF90A8C0C9D1C23E066
:102D0000A20EB11C84E0E816F10479F60E94B70B1C
:102D10005DCF081BD4CF8091770280FF85CF1F92B3
:102D20005F921F924F921F921F9384EA93E073CF9A
:102D3000E8E7F2E0438128E0421B08F440E021E0AC
:102D4000628181810C94B015E8E7F2E0438128E0CC
:102D5000420F08F44FEF21E0628181810C94B0159D
:102D6000E8E7F2E0628128E0621B08F460E021E01D
:102D7000438181810C94B015E8E7F2E0628128E09C
:102D8000620F08F46FEF21E0438181810C94B0154C
:102D9000E8E7F2E0818121E04381628188500C9470
:102DA000B015E8E7F2E0818121E043816281885F2C
:102DB0000C94B01580917C02882319F08150809387
:102DC0007C02609178027091790280917A029091F0
:102DD0007B020C949E1580917C02833018F48F5FE7
:102DE00080937C02609178027091790280917A02DE
:102DF00090917B020C949E15E8E7F2E083E08083DB
:102E000011828FEF8283838314826081718182813A
:102E100093810C949E1510924902EAEAF1E086E053
:102E2000DF011D928A95E9F70C9479121F93CF93D5
:102E3000DF93CDB7DEB7AA970FB6F894DEBF0FBE0B
:102E4000CDBF87E992E02091F100DC012D93CD0107
:102E5000B2E08F399B07B9F780919802833009F46B
:102E600071C0B8F4813009F448C0823009F4B2C0AE
:102E70008091E80083FF3AC1809197029091980277
:102E80009A3008F033C1E92FF0E0E550FB4C0C9488
:102E900050308A3009F48DC08B3009F470C089300D
:102EA00039F780919702813219F780919B029091B6
:102EB0009C02009711F00297D9F68091E800877F75
:102EC0008093E8008091E80082FF37C09091F30082
:102ED0008091F200029729F48091F1008B7F81307C
:102EE00021F48091F10080938B028091E8008B7730
:102EF0008093E8000E943C06BBCF80919702813A04
:102F000009F0B6CF8091E800877F8093E800809138
:102F10009B0290919C02892B61F468E08CE892E01E
:102F200070E00E94EE068091E8008B778093E800C5
:102F30009FCF60E090E080E0F3CF80919F0281110D
:102F4000C1CF96CF80919702813A09F091CF8091BD
:102F50009B0290919C02892B09F08ACF8091E80016
:102F6000877F8093E8008091E80080FFFCCF80910C
:102F70001C018093F1008091E8008E77B9CF809199
:102F80009702813209F074CF80919B0290919C024C
:102F9000892B09F06DCF8091E800877F8093E8004E
:102FA0000E943C068091990280931C010E940B179D
:102FB0005FCF80919702813209F05ACF8091E8006B
:102FC000877F8093E8000E943C0680919A0280935C
:102FD0008A024ECF80919702813A09F049CF8091C1
:102FE000E800877F8093E8008091E80080FFFCCFB5
:102FF00080918A02BECF803899F0823809F076C07D
:1030000080919B028F70873008F070C08093E90038
:103010008091EB0085FB882780F91092E90006C0BB
:103020008091940290919502911182609091E800B4
:10303000977F9093E8008093F1001092F1008091C7
:10304000E8008E77C5C1882309F4B2C1823009F047
:103050004DC0809199028111B6C180919B028F7001
:103060002FEF280F263008F041C08093E90020910F
:10307000EB0020FFA8C1933031F48091EB00806217
:103080008093EB00A0C19091EB0090619093EB00D6
:1030900021E030E001C0220F8A95EAF72093EA0090
:1030A0001092EA008091EB008860EACF81111EC087
:1030B000109199021F778091E3008078812B809393
:1030C000E3008091E800877F8093E8000E943C063F
:1030D0008091E80080FFFCCF8091E30080688093BE
:1030E000E30082E0111183E080939F028091E80069
:1030F00083FF0AC08091E800877F8093E800809179
:10310000EB0080628093EB00AA960FB6F894DEBFC6
:103110000FBECDBFDF91CF911F91089580588230AF
:1031200028F72091990230919A022C3DE3E03E0766
:10313000A1F583E08A838AE289834FB7F894DE01A0
:10314000139620E03EE051E2E32FF0E05093570069
:10315000E49120FF03C0E295EF703F5FEF708E2F88
:1031600090E0EA30C0F0C7968D939D932F5F243195
:1031700059F74FBF8091E800877F8093E8006AE2AB
:1031800070E0CE0101960E94EE068091E8008B77F8
:103190008093E800ABCFC096E7CF80919B029091DF
:1031A0009C02432F55274330510509F44AC078F556
:1031B0004130510509F485C08BE790E0E5E8F8E07F
:1031C0004230510509F092CF2091E800277F2093EB
:1031D000E80020919D0230919E028217930708F427
:1031E0009C0140E02115310509F070C041116EC00D
:1031F0008091E80082FDC9CF80919F02882329F247
:10320000853019F28091E80083FFF2CFBECF4132C2
:10321000510509F447C04232510509F067CF8430A7
:10322000910508F063CFFC01EE0FFF1FEA56FE4F39
:103230000190F081E02D8E569E4FDC018C9190E044
:103240001DC0332721303105E9F02115310579F012
:1032500022303105F9F02330310509F047CFE2E1A2
:10326000F9E0E4918E2F90E0E2E1F9E007C0E2E4BA
:10327000F9E0E4918E2F90E0E2E4F9E0009709F4A0
:1032800035CFA2CFEAE2F9E0E4918E2F90E0EAE2B6
:10329000F9E0F4CFE8E1F9E0E4918E2F90E0E8E185
:1032A000F9E0ECCF8430910508F020CF880F991F0A
:1032B000FC01E256FE4F0190F081E02D89E090E0A4
:1032C00083CF82E190E0E0E0F9E07ECF80919F0241
:1032D000882309F45ACF853009F457CF8091E8004C
:1032E00083FD53CF8091E80082FD82CF8091E8007A
:1032F00080FF78CF9091F3008091F2002115310585
:1033000019F08830910550F041E0089709F040E04D
:103310008091E8008E778093E80064CF44914093D9
:10332000F1003196215031090196E8CF803809F03B
:10333000DDCE8091E800877F8093E800809196023F
:103340008093F1007CCE8111D1CE10919902123080
:1033500008F0CCCE8091E800877F8093E80010933E
:1033600096020E943C06112311F084E005C0809172
:10337000E30087FDFACF81E080939F0242E061EC99
:1033800081E00E945B0642E261EC84E00E945B0601
:1033900042E261EC82E00E945B0642E260EC83E084
:1033A0000E945B0642E261EC85E00E945B069ECED5
:1033B00080919902813009F099CE81E0933009F033
:1033C00080E0809395021092E9008091E800877F69
:1033D0008093E8000E943C0689CE60917802669551
:1033E00070E04BE050E084E091E00E94EA30892BED
:1033F00019F481E0809362020E949D0890935C0220
:1034000080935B028091770280FF08C08CE194E09A
:103410009F938F930E9491050F900F900895909124
:10342000780290FF55C0917081113CC092609093DA
:1034300078026623F1F160917802709179028091AF
:103440007A0290917B020E949E158091770280FF04
:103450000FC08091780286951F928F9385E193E04B
:103460009F938F930E9491050F900F900F900F9054
:1034700060917802669570E04BE050E084E091E066
:103480000E94EA30892B09F10E944D1481E080935B
:103490005E0220E040917B0260917A028091790285
:1034A0000C94B0158B3210F09465C1CF880F982B17
:1034B000BECF8091770280FFDBCF80917802869526
:1034C0001F928F9387EF92E0CBCF0E94ED19DECF52
:1034D00008958091780281608093780280917702CC
:1034E00080FF0DC01F9281E08F9381E393E09F9353
:1034F0008F930E9491050F900F900F900F908091E5
:10350000780260E086950C940F1A80917802869577
:10351000815009F48AE261E00C940F1A80917802DC
:1035200086958F5F8B3208F081E061E00C940F1A72
:103530009091780290FF07C09695981720F0961703
:1035400010F40C948E1A61E00C940F1A2F923F9293
:103550004F925F926F927F928F929F92AF92BF92A3
:10356000CF92DF92EF92FF920F931F93CF93DF934F
:10357000CDB7DEB728970FB6F894DEBF0FBECDBF2C
:103580003C01FC0183819481892B39F080819181F8
:1035900089238F3F11F00C94D02328960FB6F8940E
:1035A000DEBF0FBECDBFDF91CF911F910F91FF9076
:1035B000EF90DF90CF90BF90AF909F908F907F90D3
:1035C0006F905F904F903F902F9008950E947910D8
:1035D000182F682F89819A810E94570969817A8101
:1035E000812F0E94E20EDC01815095454D018F3FF5
:1035F000910510F4F5E59F26F301F281F887FF238A
:1036000009F4E1C22FEF82169104A9F1A0F13EED79
:1036100083163CE5930621F01092FC014D0174C025
:103620008091FC0191E089278093FC018091460202
:10363000877009F4B2CFF3018281882309F4ADCFFA
:1036400082E028960FB6F894DEBF0FBECDBFDF91A3
:10365000CF911F910F91FF90EF90DF90CF90BF908F
:10366000AF909F908F907F906F905F904F903F9022
:103670002F900C94E1128091FC01882309F438C149
:103680001092FC0180EC8816910408F089C090E843
:103690008916910408F0F6C0E0E48E16910408F053
:1036A000BBC021E030E040E050E060E070E080E04E
:1036B00090E0082D0E946C30E091DC012E2BE0910F
:1036C000DD013E2BE091DE014E2BE091DF015E2B10
:1036D000E091E0016E2BE091E1017E2BE091E201AF
:1036E0008E2BE091E3019E2B2093DC013093DD01D2
:1036F0004093DE015093DF016093E0017093E1019C
:103700008093E2019093E301C40182519F45409769
:1037100010F00C94A2238FEF93E00E94F7300EEE8E
:10372000080D56ECA52EB12C811180CF0111CCC211
:103730001C821B82882483944AE0542E85010F5FEB
:103740001F4FC5010E94F73089831A82882309F42C
:103750006DCF9FEF980F933008F0C5C28A8389829E
:1037600092E0A90EB11CC8010E94F7308B83882318
:1037700009F45CCF8E010F5F1F4FF80120812223D7
:10378000E9F2213009F0E8C291818281913009F09B
:10379000ACC20E5F1F4F0E94D7130F5F1F4FEDCFBC
:1037A000FFEF8F16910411F008F07BCF21E030E09D
:1037B00040E050E060E070E080E090E08401005C78
:1037C00011090E946C30E091F4012E2BE091F5017B
:1037D0003E2BE091F6014E2BE091F7015E2BE0913C
:1037E000F8016E2BE091F9017E2BE091FA018E2B0E
:1037F000E091FB019E2B2093F4013093F50140935F
:10380000F6015093F7016093F8017093F9018093EA
:10381000FA019093FB0178CF21E030E040E050E0E6
:1038200060E070E080E090E08401005411090E94A3
:103830006C30E091E4012E2BE091E5013E2BE0910C
:10384000E6014E2BE091E7015E2BE091E8016E2B43
:10385000E091E9017E2BE091EA018E2BE091EB01F2
:103860009E2B2093E4013093E5014093E6015093B1
:10387000E7016093E8017093E9018093EA01909376
:10388000EB0142CF21E030E040E050E060E070E04A
:1038900080E090E08401005811090E946C30E091B2
:1038A000EC012E2BE091ED013E2BE091EE014E2B31
:1038B000E091EF015E2BE091F0016E2BE091F101C0
:1038C0007E2BE091F2018E2BE091F3019E2B209351
:1038D000EC013093ED014093EE015093EF016093C2
:1038E000F0017093F1018093F2019093F3010CCFFA
:1038F00020E48216910408F06EC0E091DC01F091A2
:10390000DD015090DE014090DF013090E001209019
:10391000E1013091E2013E838091E3018F8321E058
:1039200030E040E050E060E070E080E090E0082DA2
:103930000E946C30A22EAE22B32EBF22C42EC52010
:10394000D52ED420E62EE320F72EF2200E81082378
:103950001F8119230E94853009F060CE90EC8916F2
:10396000910408F09AC020E88216910408F0FBC088
:1039700030E48316910408F0C6C021E030E040E056
:1039800050E060E070E080E090E0082D0E946C3034
:1039900020953095409550956095709580959095BF
:1039A0002E233F234521542163217221EE818E2352
:1039B000FF819F232093DC013093DD014093DE01E2
:1039C0005093DF016093E0017093E1018093E20185
:1039D0009093E3012BCE90E889169104F0F4E091E6
:1039E000E401F091E5015090E6014090E70130904C
:1039F000E8012090E9012091EA012E833091EB014A
:103A00003F8321E030E040E050E060E070E080E0A3
:103A100090E08401005411098BCF80EC881691044A
:103A2000F0F4E091EC01F091ED015090EE01409046
:103A3000EF013090F0012090F1019091F2019E830E
:103A40002091F3012F8321E030E040E050E060E07E
:103A500070E080E090E084010058110969CFE091A6
:103A6000F401F091F5015090F6014090F70130908B
:103A7000F8012090F9013091FA013E838091FB0119
:103A80008F8321E030E040E050E060E070E080E0D3
:103A900090E08401005C11094BCF8FEF88169104F0
:103AA00011F008F06ACF8401005C110921E030E0D8
:103AB00040E050E060E070E080E090E00E946C3018
:103AC000209530954095509560957095809590958E
:103AD0002E233F234521542163217221EE818E2321
:103AE000FF819F232093F4013093F5014093F60169
:103AF0005093F7016093F8017093F9018093FA01F4
:103B00009093FB0193CD84010054110921E030E032
:103B100040E050E060E070E080E090E00E946C30B7
:103B2000209530954095509560957095809590952D
:103B30002E233F234521542163217221EE818E23C0
:103B4000FF819F232093E4013093E5014093E60138
:103B50005093E7016093E8017093E9018093EA01D3
:103B60009093EB0163CD84010058110921E030E00E
:103B700040E050E060E070E080E090E00E946C3057
:103B800020953095409550956095709580959095CD
:103B90002E233F234521542163217221EE818E2360
:103BA000FF819F232093EC013093ED014093EE01C0
:103BB0005093EF016093F0017093F1018093F20153
:103BC0009093F30133CD2FEF8216910409F060F545
:103BD00030E483169104A0F5A090DC01B090DD01E3
:103BE000C090DE01D090DF01E090E001F090E101B3
:103BF000E091E2011091E30121E030E040E050E08B
:103C000060E070E080E090E0082D0E946C30A2221D
:103C1000B322C422D522E622F722082F0E2319232D
:103C20000E94853009F402CDA031FFE5BF0709F4F9
:103C3000D6C0A1312FE5B20709F030C682E0D0C06E
:103C400080E888169104A0F4A090E401B090E5010A
:103C5000C090E601D090E701E090E801F090E90122
:103C6000E091EA011091EB0190E4891A9108C4CF28
:103C7000E0EC8E169104A0F4A090EC01B090ED0160
:103C8000C090EE01D090EF01E090F001F090F101D2
:103C9000E091F2011091F301F0E88F1A9108ACCF96
:103CA000A090F401B090F501C090F601D090F7011A
:103CB000E090F801F090F901E091FA011091FB0118
:103CC00020EC821A910898CFA11434E0B30609F4CD
:103CD000ADCCC5010E94F730811101C001508FEFBA
:103CE000A81AB80A23CD580145CD923029F40E5FA9
:103CF0001F4F0E947A1351CD933029F40E5F1F4F4E
:103D00000E9439134ACD943019F00F5F1F4F45CDF3
:103D10000E5F1F4F30E020E0B8016F5F7F4FF8016A
:103D200041818053990B8A30910558F02150310917
:103D300008F433CD8FE99FE00197F1F700C0000050
:103D4000F5CF529EF001539EF00D11249C012E0FD1
:103D50003F1F842F8B01E0CFE22FF0E0EA51FB4FB1
:103D60009490822F86958695869590E0FC01EA5284
:103D7000FB4FC4902770D12C022E02C0D594C7945B
:103D80000A94E2F7E1E0CE22DD24FC01EA53FB4F86
:103D9000E490F12C02C0F594E7942A95E2F7F1E063
:103DA000EF22FF24C114D10419F081EE0E947A138E
:103DB000E114F10419F086EE0E947A13892D0E9415
:103DC000D713EF2819F086EE0E943913CD2809F495
:103DD000E4CC81EE95CF81E00E94F91203C081E02E
:103DE0000E94BE120E94A21221CC82E0F5CF07E20F
:103DF00025EE45EE68ED7CE5CEC406E221EE40EE10
:103E000064EF7CE5C8C407E225EE44EE65EF7CE58F
:103E1000C2C406E221EE42EE66EF7CE5BCC408E2D5
:103E200021E045EE69ED7CE5B6C4809155028061E4
:103E3000E6E08E16ECE59E0609F49EC080915502E0
:103E40008860F7E08F16FCE59F0608F495C0809126
:103E50005502806291C0809155028D7F2CE08216C0
:103E60002CE5920609F488C060F48AE088168CE597
:103E7000980609F496C008F48EC0809155028E7F92
:103E80007BC080915502877FEEE08E16ECE59E06A2
:103E900009F472C0809155028B7FFFE08F16FCE51C
:103EA0009F0608F469C0809155028F7E65C02CEF93
:103EB00082162CE5920609F466C068F583E188163F
:103EC0008CE5980609F479C090F4E1E18E16ECE5F2
:103ED0009E0609F46EC0F2E18F16FCE59F0609F01C
:103EE000CCC40E940B17809155028F7745C025E105
:103EF00082162CE5920609F468C008F47CC08BEFAA
:103F000088168CE5980609F0B8C480915602816045
:103F100080935602B2C481149DE5990609F451C0FC
:103F2000A0F4809156028D7FFEEF8F16FCE59F0670
:103F300079F3809156028E7F2FEF82162CE5920640
:103F400038F3809156028360E3CF32E083163DE57B
:103F5000930609F459C008F444C060E093E0891660
:103F60009DE5990609F089C48EE090E00E940B312E
:103F700084C4809155028160809355027EC48091F3
:103F800055028460F9CF809156028260C1CF809142
:103F900055028064F1CF0E940B1780915502806812
:103FA000EBCF809155028C60E7CF809155028F7DD9
:103FB000E3CF809155028F7BDFCF80915502837FC5
:103FC000DBCF809156028C7FA3CF8091550282FB7C
:103FD000992790F921E0922790FB82F990FB83F9D1
:103FE000CBCF80915602982F909591708E7F892B20
:103FF00090FB81F98DCF0E940B1790915502892F6C
:1040000097FB87F98058B8CF61E0AECF8091490225
:10401000E6E18E16ECE59E0609F0D5C38A7A91E0BA
:1040200009F490E09093FE0169E2811165E388EA6A
:1040300091E00E94A9080E940D12F8CA85E34CC4C1
:104040008091770280FF10C0809178028095817006
:104050001F928F9385ED95E09F938F930E9491051A
:104060000F900F900F900F908091780280FF2EC0DC
:104070008E7F8093780260917802709179028091AE
:104080007A0290917B020E949E158091770280FFB8
:104090000FC08091780281701F928F9386E695E021
:1040A0009F938F930E9491050F900F900F900F9008
:1040B0000E944D143FEF80E792E0315080409040E5
:1040C000E1F700C000000E94B70BB0CA8160809386
:1040D00078028091770280FF0DC01F9281E08F935C
:1040E0008EE995E09F938F930E9491050F900F901A
:1040F0000F900F908091780261E086950E940F1AD0
:1041000095CA45E85AE16EE87AE10E94C7098ECA6D
:104110004EE85AE165E87AE1F8CF48EC56E161ED06
:1041200076E1F3CF41ED56E168EC76E1EECF40EB7E
:1041300056E16CEB76E1E9CF4CEB56E160EB76E1D2
:10414000E4CF48E956E164EA76E1DFCF44EA56E19C
:1041500068E976E1DACF4AED56E16BEE76E1D5CF4C
:104160004BEE56E16AED76E1D0CF61E081E0C6CF5B
:1041700065E082E00E94981A59CA68E086E0FACFAA
:104180006EE089E0F7CF64E18FE0F4CF67E185E18D
:10419000F1CF61E088E1B2CF62E289E1EBCF61E08B
:1041A00083E2ACCFE1E08E16ECE59E06C1F0FFEDB8
:1041B0008F16FCE59F0629F181142CE5920621F566
:1041C0000E940B172E9829983FEF84E39CE0315012
:1041D00080409040E1F700C000000E947D0890916F
:1041E0007702892F8E7F90FF81608093770280FF16
:1041F00005C08EE196E00E94F80418CA8CE096E0B3
:10420000FACF0E943B1512CAF30100811181F88593
:10421000C801FF2309F43CC00E947910F82E682FD2
:10422000C8010E945709B8018F2D0E94EF0E8C0122
:10423000A82EF301C580C2943FE0C322F280F110A2
:104240001092480280914602877099F0FF2089F011
:10425000812F807F803421F080E2800F883048F009
:1042600082E00E94E112809146028770EE24E3947E
:104270008111E12CD12ED2942FE0D222FBE0FD154A
:1042800008F43FC0ED2DF0E0EB5FFA4C0C94503099
:104290000E942E09F82EC7CF212F2F70C22E107F1B
:1042A00019F0C29490EFC922FF20C9F0CC2069F028
:1042B00080E2800F883010F0A1100BC0809149027D
:1042C000C82AC09249020E940D12802F0E947A13C0
:1042D00018C080914802C82AC0924802F4CF802FAB
:1042E0000E943913CC2069F0C094005E083010F0B1
:1042F000A1103EC080914902C822C09249020E948A
:104300000D12ED2DE850FF0B349710F40E94BB09FD
:10431000EE2009F442C98091460280FD3EC9F301B6
:1043200012828595859585950E94F912C3010E9498
:10433000A61A8091460285958595859528960FB693
:10434000F894DEBF0FBECDBFDF91CF911F910F91CB
:10435000FF90EF90DF90CF90BF90AF909F908F90A5
:104360007F906F905F904F903F902F900C94BE1273
:1043700080914802C822C0924802C1CF312F3F70BD
:10438000B32E107F103219F0B29480EFB822AA2019
:1043900071F081E0A81661F1FF20B9F1CC2071F134
:1043A000F301858180FF91CF8F70858327C0FF2027
:1043B00091F090914A028B2D892BC11003C00E946D
:1043C0002F139FCFE1E0CE12FACF891709F499CFCE
:1043D00080934A0296CFC11006C00E9428098B2DF7
:1043E0000E9424138ECFF1E0CF1609F48ACFF5CFC7
:1043F000FF2031F022E02C1508F483CF8B2DDFCF86
:1044000031E03C1508F47DCFEACFCC2041F3F9E34D
:10441000AF1291C12FEF37EE83E021503040804042
:10442000E1F700C0000087C1812F869586958370D3
:1044300061F0813009F065CFC8019370F11002C0BE
:1044400090E080E00E948F095CCFC8019370F1106A
:1044500002C090E080E00E94A50953CF802FFF208A
:1044600029F00E9415080E9464114BCF0E9450074A
:10447000FACF812F837009F066C0F11042CF802FF0
:10448000829586958770880F880F602F6F70862EB3
:10449000912CB12CA12C082E04C0880C991CAA1CAC
:1044A000BB1C0A94D2F740E050E0BA0104FF0FC0F1
:1044B0004FE050E060E070E004C0440F551F661FFD
:1044C000771F8A95D2F74095509560957095812F0A
:1044D000869586958370823019F1D8F400914B024D
:1044E00010914C0220914D0230914E02813069F0C2
:1044F000482959296A297B29CB01BA0160237123F4
:10450000822393230E941A13FCCE802A912AA22A86
:10451000B32ACB01BA01682979298A299B29F2CFCC
:10452000482959296A297B2900914B0210914C0294
:1045300020914D0230914E02CB01BA0160277127C4
:1045400082279327DFCF8695FF2011F0812F81707E
:10455000882309F4D6CE802F829586958770880FA0
:10456000880F602F6F70862E912CB12CA12C082EF5
:1045700004C0880C991CAA1CBB1C0A94D2F740E00A
:1045800050E0BA0104FF0FC04FE050E060E070E07F
:1045900004C0440F551F661F771F8A95D2F74095B8
:1045A000509560957095812F8695869583708230A1
:1045B00019F1D8F40091A0021091A1022091A20259
:1045C0003091A302813069F0482959296A297B2951
:1045D000CB01BA0160237123822393230E94961298
:1045E00090CE802A912AA22AB32ACB01BA01682947
:1045F00079298A299B29F2CF482959296A297B29B7
:104600000091A0021091A1022091A2023091A30278
:10461000CB01BA016027712782279327DFCF1F7054
:10462000FF2029F0812F0E94F912802FC8CE802F01
:104630000E942413812F0E94BE1263CE802F92EF1E
:10464000A91609F450C09A1578F0E0EFAE1619F1EA
:10465000F1EFAF1609F43FC0FF2009F467C0C110A5
:1046600034CE812F8F713CC023EFA21609F440C0D5
:1046700034EFA312F1CFFF2009F44DC01F71812F39
:104680000E94F912E8E01E9FC0011124836080930C
:104690004602812F25C0FF20C9F081E08C1508F467
:1046A00030CE1F7161E070E080E090E004C0660FE2
:1046B000771F881F991F1A95D2F70091A0021091B9
:1046C000A1022091A2023091A302A4CF92E09C15F6
:1046D00008F417CEE6CF812F8F71FF2009F4ABCFFE
:1046E0000E94F9120ECE812F8F71FF20C9F3A3CF44
:1046F00060E070E0CB01FF2009F470CF1F7161E032
:1047000070E080E090E004C0660F771F881F991F5B
:104710001A95D2F763CF81E00E94E112F1E0FC1517
:1047200008F0EFCD82E00E94E112EBCDCC2039F011
:10473000893309F46FCE802F0E943913E2CD812F87
:104740008F7179CFF0E18F16FFE59F0609F443CB17
:1047500021E182162FE5920609F447CB84EF8816F3
:104760008CE5980609F449CBD0F5E8ED8E16ECE51A
:104770009E0609F43CCBF9ED8F16FCE59F0609F483
:104780004ECB27ED82162CE59206B9F506E221EE16
:1047900041EE67ED7CE5C3010E94EA130C94161B01
:1047A00085E0DE01119601900D928A95E1F7F30103
:1047B000228189819A8121110C94E61A0E942E0986
:1047C000182F0C94EE1A8272F401E25CFC45E4317D
:1047D000F10508F0E7CCEF5EFA4C0C94503036EF60
:1047E00083163CE5930609F414CB08F40CCB97EF41
:1047F00089169CE5990609F487C01092FD0122E014
:1048000082162CE5920608F401CC36E183163CE5CD
:10481000930630F0C4018B5F9C45099708F0F6CBF6
:104820000E94AE0E909356028093550280E1881646
:104830008CE5980609F4B9CB08F039CBE8E08E1680
:10484000ECE59E0609F4A3CB08F005CB24E0821624
:104850002CE5920609F493CB08F0E7CA82E08816AB
:104860008CE5980609F485CB80915502826093E02F
:1048700089169CE5990609F47FCB60915502109149
:10488000560284E090E00E940B31612F81E290E0BB
:104890000E940B310E940B170C94161BA43FECE5F1
:1048A000BE0709F4AACA28F5A83D2CE5B20709F409
:1048B0009ECAA93D3CE5B30709F4B1CAA73D8CE502
:1048C000B80709F463CFA631BC4509F09DCC8091AF
:1048D000FE018111B3CB89E2EAEAF1E091918913FB
:1048E00003C0DF0111971C9221E0E03BF207B1F712
:1048F000A2CBA63F9CE5B90709F48BCA08F483CA8A
:10490000A73FFCE5BF07F9F607E225EE46EE67EFA5
:104910007CE541CF1F93CF93DF9380910402807F8A
:10492000A9F480910102882389F080913602D09108
:1049300005026091FF0170910002A0910202B09106
:104940000302C62FC72316E0D81304C0DF91CF910E
:104950001F91089590E0109711F0CF3F19F4019640
:104960008770F2CF189F9001199F300D1124F90123
:10497000EA5FFD4F41814713F2CF40814613EFCFED
:1049800042814111ECCF438154814A1B5B0B483C6F
:10499000510528F7809104028F7080618093040292
:1049A000F901E55FFD4F80818F70806180838FEF1B
:1049B00091E00E94A61ADF91CF911F910C94850976
:1049C000AF92BF92CF92DF92EF92FF920F931F931D
:1049D000CF93DF93CDB7DEB761970FB6F894DEBF04
:1049E0000FBECDBF8C0185E0F801DE011D96019060
:1049F0000D928A95E1F7F80180819181E2802FEF95
:104A0000A22E21E0B22E6091020270910302611584
:104A1000710509F43EC13091FF0140910002232F3E
:104A200024232F3F09F435C1C380D480F0900102C4
:104A3000F601E61BF70BFF2009F4FBC020910402EE
:104A4000522F507FE83CF10508F0BBC0511178C0EF
:104A5000FE2C491321C038131FC0E1101DC02F7058
:104A6000206120930402C5010E94A61A80910402CD
:104A7000F80185838F2D61960FB6F894DEBF0FBEC7
:104A8000CDBFDF91CF911F910F91FF90EF90DF90FD
:104A9000CF90BF90AF900895CD2829F0282F2923DB
:104AA0002F3F09F014C120E0F22FF170DF2E20FF1C
:104AB0003DC0209136024091050256E0241315C0F6
:104AC0008D879E878D859E850E94BB10292F2295FC
:104AD0002F702230F8F0243020F59F70F9F0F801A3
:104AE0009581907FD9F4D12C1FC030E0529FF00106
:104AF000539FF00D1124EA5FFD4F6181961306C0AC
:104B00006081861303C06281E61210C02F5F3F4FA1
:104B10002770D4CF9F7011F0882329F3805E8830EE
:104B200010F3C8010E94A61AFD2CA4CFEE2009F4B0
:104B3000A1CF80910402816080930402F12C9ACF6E
:104B4000491312C0381310C0E1100EC0F8012583BC
:104B5000C8010E94A61A86E0F801AFEFB1E001900B
:104B60000D928A95E1F786CF8D879E878D859E85EC
:104B70000E94C510882309F1EE20F9F0809104020B
:104B8000803270F02091FF013091000238872F832E
:104B90001986DB86CA868C87CE0107960E94A61AE4
:104BA00086E0F801AFEFB1E001900D928A95E1F750
:104BB0000E948A24FF24F3945DCFC8010E94A61AA4
:104BC000F9CF51110AC08FEF91E00E94A61A86E03A
:104BD000F50111928A95E9F7B1CF49130FC0381347
:104BE0000DC0E1100BC0F8012583C8010E94A61A70
:104BF00086E0F50111928A95E9F73CCF8D879E8773
:104C00008D859E850E94C5108823B9F2EE20A9F2F9
:104C100080910402803220F22091FF013091000245
:104C20003A8329831B82DD82CC828E83CE0101965A
:104C3000B5CFE83CF105E0F6FE2CEE2009F4BDCF3F
:104C4000491316C0381314C08091040280FD83CF2D
:104C5000982F907F09F47FCFF8018583903F09F466
:104C600077CF982F907F905F8F70892B858370CF3F
:104C70008D879E878D859E850E94C510811190CF5E
:104C800080910402816080930402C8010E94A61AE8
:104C9000F1CEEE2009F491CF8D879E878D859E857C
:104CA0000E94C510F82E882309F487CF86E0F8010A
:104CB000AFEFB1E001900D928A95E1F78091FF018D
:104CC000909100020E94BB100E948A24D3CE21E062
:104CD0002E25EACE1F93CF93DF93CDB7DEB767972C
:104CE0000FB6F894DEBF0FBECDBF4B8B5C8B6D8BC8
:104CF0007E8B8F8B1A8A198A85E0FE017396DE01FE
:104D00001D9601900D928A95E1F786E0FE013D9691
:104D1000DE01179601900D928A95E1F7CE01079674
:104D20000E94E024882389F016E080913602909159
:104D30000502891349C067960FB6F894DEBF0FBE0F
:104D4000CDBFDF91CF911F91089586E0FE01379688
:104D5000DE01119601900D928A95E1F78A859B8577
:104D6000892B11F38F81988589238F3FE9F2209158
:104D7000050230E0C90101968770992740913602FB
:104D80004817190671F40E940B1710920502109231
:104D9000360286E0EFEFF1E0DF011D928A95E9F738
:104DA000C3CF96E0929FD001939FB00D1124AA5FCC
:104DB000BD4FFE01319601900D929A95E1F78093D7
:104DC00005020E948509B0CF819FC00111248A5F2E
:104DD0009D4F0E94E024882309F4ADCF80913602D4
:104DE00090E0019687709927809336029ECF1F929C
:104DF0000F920FB60F9211242F933F934F935F930F
:104E00006F937F938F939F93AF93BF93CF93DF93D2
:104E1000EF93FF93D091E900DF708091EC00C82FF1
:104E2000C17080FDC0E81092E9008091F000877F9A
:104E30008093F00078940E9416171092E9008091F8
:104E4000F00088608093F000CD2BCF70C093E90014
:104E5000FF91EF91DF91CF91BF91AF919F918F9192
:104E60007F916F915F914F913F912F910F900FBE66
:104E70000F901F9018951F920F920FB60F9211244A
:104E80002F933F934F935F936F937F938F939F9352
:104E9000AF93BF93EF93FF938091E10082FF15C022
:104EA0008091E20082FF11C08091E1008B7F8093AE
:104EB000E100209186022F5F822F62E30E941C3066
:104EC000992309F4CBC0209386028091DA0080FFF9
:104ED00028C08091D80080FF24C08091DA008E7FA6
:104EE0008093DA008091D90080FFEEC080E189BD17
:104EF00082E189BD09B400FEFDCF81E080939F026D
:104F000081E798E00E94F80480918702811109C02E
:104F10000E949A050E948D068091E2008460809331
:104F2000E2008091E10080FF1BC08091E20080FFE1
:104F300017C08091E2008E7F8093E2008091E200B2
:104F400080618093E2008091D80080628093D800D5
:104F500019BC85E080939F0289E798E00E94F804DD
:104F60008091E10084FF3AC08091E20084FF36C066
:104F700080E189BD82E189BD89B5982F917080FF5C
:104F8000FBCF8091D8008F7D8093D8008091E10085
:104F90008F7E8093E1008091E2008F7E8093E2001B
:104FA0008091E20081608093E200809196028823E4
:104FB00009F494C084E080939F028DE798E00E94FA
:104FC000F8040E940B170E94BB091092890280917D
:104FD000880281110E94691A0E94ED198091E100F6
:104FE00083FF2BC08091E20083FF27C08091E10006
:104FF000877F8093E10082E080939F021092960267
:105000008091E1008E7F8093E1008091E2008E7FAD
:105010008093E2008091E20080618093E20042E0B0
:1050200060E080E00E945B068091F00088608093E1
:10503000F00081E898E00E94F804FF91EF91BF91A1
:10504000AF919F918F917F916F915F914F913F9120
:105050002F910F900FBE0F901F90189510928602FF
:1050600080918502882309F430CF80919F0284309B
:10507000C1F49091E9009F702091EC00822F817023
:1050800020FD80E8892B95E09093E9009091EB005A
:1050900090FF04C09091EE0097FD08C08F70809340
:1050A000E9001092850211CF1092F1009091E80072
:1050B00095FDFACF9091E80090FFF0CF9091E80035
:1050C0009E779093E800EACF19BC10929F0285E783
:1050D00098E00E94F8041092870223CF8091E300A9
:1050E00087FD93E090939F0268CFCDB7DEB7AE9770
:1050F0000FB6F894DEBF0FBECDBF84B7877F84BFE5
:105100000FB6F894A8958091600088618093600044
:10511000109260000FBE80E890E00FB6F894809384
:105120006100909361000FBE85B7806885BF85B729
:10513000806885BF269A219A209A559A2E98299898
:105140000E949A050E948D068091E20084608093FF
:10515000E2008DEC9AE09093A7018093A6017894E9
:1051600080919F028823A1F01091E9001F70909117
:10517000EC00892F817090FD80E8182B1092E900D7
:105180008091E80083FD0E9416171F701093E900BC
:1051900082E084BD93E095BD9AEF97BD80936E0049
:1051A000A9E7B1E02DE731E041E050E08D91E82F33
:1051B000E295EF70F0E011A18F70BA0101C0660FA7
:1051C0008A95EAF7962F9095912391A382A1862B39
:1051D00082A32A173B0751F7ADE7B1E022E831E09F
:1051E00041E050E08D91E82FE295EF70F0E011A1E1
:1051F0008F70BA0101C0660F8A95EAF7962F9095D5
:10520000912391A382A1862B82A32A173B0751F7F2
:105210001092510210927D021092520210927E0260
:105220001092530210927F02109254021092800248
:105230000E94070E8FE39CE90197F1F700C0000080
:105240000E94070E8091800280FF0BC080E00E94C8
:105250004C116FEF7FEF90E080E00E9429310E94B7
:105260007D0890E080E00E9405318C3E9E4F11F059
:105270000E943B1582E090E05D9AFFEF21EE34E062
:10528000F15020403040E1F700C000005D984FEF42
:10529000E1EEF4E04150E040F040E1F700C00000F2
:1052A0005D982FEF31EE44E0215030404040E1F76F
:1052B00000C000005D9AEFEFF1EE24E0E150F04015
:1052C0002040E1F700C00000019709F079C1289A59
:1052D0005D9A82E290E00E94F730813209F042C686
:1052E00083E290E00E94F730863009F03BC684E20A
:1052F00090E00E94F730853109F034C690E080E0FC
:105300000E9405318C3E9E4F11F00E943B1582E0B9
:1053100090E00E94F730809377020E94AE0E909347
:1053200056028093550283E090E00E94F730682F88
:1053300070E090E080E00E941A136091A0027091EA
:10534000A1028091A2029091A3020E94B40A8091CE
:1053500057028111E0C08091770280FF14C085ED73
:1053600097E09F938F930E949105809177020F9011
:105370000F9080FF08C08FEB97E09F938F930E9460
:1053800091050F900F9090E080E00E9405318C3ED7
:105390009E4F81F08091770280FF08C087E997E0F7
:1053A0009F938F930E9491050F900F900E943B1541
:1053B0000E94FC1688E090E00E94FF306093780223
:1053C0007093790280937A0290937B026E7FD1F47E
:1053D0008091770280FF08C08EE497E09F938F93BF
:1053E0000E9491050F900F900E94FC1688E090E0BB
:1053F0000E94FF30609378027093790280937A0262
:1054000090937B020E94CC098091770280FF76C046
:1054100085E397E09F938F930E9491058091770297
:105420000F900F9080FF6AC08091780281701F9268
:105430008F9388E197E09F938F930E9491058091CD
:1054400077020F900F900F900F9080FF57C08091C0
:10545000780286951F928F938DEF96E09F938F939E
:105460000E949105809177020F900F900F900F90FE
:1054700080FF44C0809179021F928F9383EE96E063
:105480009F938F930E949105809177020F900F90C8
:105490000F900F9080FF32C080917A021F928F93FD
:1054A00089EC96E09F938F930E94910580917702FB
:1054B0000F900F900F900F9080FF20C080917B0283
:1054C0001F928F938FEA96E09F938F930E9491058E
:1054D000809177020F900F900F900F9080FF0EC079
:1054E00080917C021F928F9383E996E09F938F9324
:1054F0000E9491050F900F900F900F9010926202F2
:105500008091780280FF04C060E086950E940F1AA7
:1055100081E08093570254985C9A22982A9A89B124
:10552000829581701A994FC090E0892B8093650213
:1055300082E191E0909359028093580280E698E0CE
:105540000E94F80439E3432E38E0532E41E2642EE2
:1055500048E0742E8DE792E0E4E0E80FEEA780913A
:105560009F02853091F10E94070E23E7C22E22E0B0
:10557000D22E8DE792E09CA78BA710E000E00DA74C
:10558000EBA5FCA53190FCA7EBA7F60121906F01DC
:10559000231068C00F5F1F4F0430110581F78FEF94
:1055A0008EA38FA318A60E949D088160782F9AA7CA
:1055B00089A74EA15FA168A58AA50E946A2678C026
:1055C00081E090E059CE92E0B0CF8CE598E00E9467
:1055D000F80480919F02843009F434C010925A027A
:1055E00088E190E020E40FB6F894A89580936000DD
:1055F0000FBE209360000E944D148091890281119A
:105600000AC081E080938902809178028170809342
:1056100088020E945C1483B7817F846083BF83B754
:10562000816083BF7894889583B78E7F83BF0FB6E0
:10563000F894A89580916000886180936000109232
:1056400060000FBE80919502882309F488CF0E94E4
:10565000070EEDE7F2E0819181116EC42EA52E13A5
:10566000FACF7DCF8091770281FD9DC0232480E019
:10567000FF24F394922D9F2109F4C9C089A32DA57D
:105680002AA33F2081E009F480E08BA30E949D08BB
:105690008160782F9DA38CA349A15AA16BA18DA1F4
:1056A0000E946A26F801ED58FD4F8081F826F082AD
:1056B00080916202882309F441C080916102E091E7
:1056C0007802E695E81BE0935D02823009F0A5C000
:1056D000F0E0E55EF74FE4910E2F10E087E0E82E52
:1056E00085E1F82E80915E02882389F010925E0297
:1056F0000E949D08980120953095820F931F9093EA
:105700005C0280935B021092600210925F028091B3
:105710005B0290915C020E948E088017910770F0E6
:10572000E0915B02F0915C020E0F1F1F10935C0270
:1057300000935B028BE592E0F7010995E091650229
:10574000EE0FEE0FE093650289B184FBAA24A0F866
:105750001A99CFC080E08A29E82BE0936502EF70A8
:10576000F0E0EE57FE4F808190916402890F8093A4
:10577000640284300CF4DAC0809163028F5F8093FE
:1057800063026091A0027091A1028091A2029091A7
:10579000A3020E94DB08882309F4AEC0813009F41B
:1057A000B7C08AEFC1C08BEF97E00E94F8049DE775
:1057B000892E92E0992EF12CE12CFF92EF9226EFA8
:1057C00037E03F932F930E94910583EF97E00E946B
:1057D000F804F40181914F010E94C3081F928F9336
:1057E0002EEE37E03F932F930E9491058CEE97E0C9
:1057F0000E94F8048FEFE81AF80A0FB6F894DEBF9B
:105800000FBECDBFF4E0EF16F104B9F62FCF8F5FD6
:10581000FF0C853009F02ECFBDCE863059F4F0E074
:10582000E85EF74FE4910E2F10E0B7EFEB2EBDE0EE
:10583000FB2E58CF893061F4E695F0E0EB5EF74F30
:10584000E4910E2F10E0ACEEEA2EABE0FA2E4ACF38
:105850008F3061F4E695F0E0EE5EF74FE4910E2FA5
:1058600010E0F6E1EF2EFCE0FF2E3CCF853159F43D
:10587000F0E0E15FF74FE4910E2F10E0EAE7EE2E43
:10588000ECE0FE2E2FCF08E210E058ECE52E5CE0B5
:10589000F52E883109F426CF833249F4EDE0F8E0A3
:1058A000059114917EE9E72E7DE0F72E1BCF04EFE2
:1058B00011E044E5E42E4DE0F42E843209F412CFD9
:1058C00000ED17E03CE4E32E37E0F32E853209F0DB
:1058D00009CF8E2F63E00E941C30E92FF0E0E65FD5
:1058E000F74FE4910E2F10E06EE7E62E64E1F62EFE
:1058F000F9CE82E090E02FCF2E9AFFEF20E732E042
:10590000F15020403040E1F700C000002E9849CF10
:105910005D984FEF80E792E0415080409040E1F782
:1059200000C000005D9A8AEA0E94D7138091640249
:105930008D3F7CF58091630281508093630260917A
:10594000A0027091A1028091A2029091A3020E94F4
:10595000DB08882321F0813071F089EF18C0299A83
:10596000EFEFF0E722E0E150F0402040E1F700C027
:1059700000002998F2CF28983FEF40E782E03150AD
:1059800040408040E1F700C00000289A89EA0E9468
:10599000D71380916402837887FF03C081508C6F96
:1059A0008F5F8093640286E0ECE6F2E0DE01119600
:1059B00001900D928A95E1F7F0906E02E0906F02EF
:1059C000109170020091710210926E0210926F029B
:1059D00010927002109271028F2D8E2909F448C026
:1059E00080916A0290916B020E948E089C019091B6
:1059F0006902992309F4D0C223333105C8F19F3FCE
:105A000019F09F5F90936902FF2059F00E94F507FB
:105A10009FEF1F140CF491E0899F802D1124809337
:105A20006E02EE2059F00E94F5079FEF1E140CF451
:105A300091E0899F802D112480936F0230916E0236
:105A40003323B1F020916F02222391F045EB340310
:105A5000C0011124992309F4C1C090936E0245EB53
:105A6000240390011124332309F4BCC030936F0246
:105A7000812F802B09F448C08091670290916802C1
:105A80000E948E089C0190916602992309F47FC2BE
:105A900025363105C8F19F3F19F09F5F909366024C
:105AA000112359F00E94D3079FEF11160CF491E0D7
:105AB000899F802D112480937002002359F00E9449
:105AC000D3079FEF10160CF491E0899F802D1124CD
:105AD00080937102309170023323B1F020917102F2
