:100000000C941C040C9463040C9463040C9463041B
:100010000C9463040C9463040C9463040C946304C4
:100020000C9463040C9463040C94062C0C94DA2C4A
:100030000C9442230C9463040C9463040C946304A6
:100040000C9463040C9463040C9463040C94630494
:100050000C9463040C948D230C9463040C9463043B
:100060000C9463040C9463040C9463040C94630474
:100070000C9463040C9463040C9463040C94630464
:100080000C9463040C9463040C9463040C94630454
:100090000C9463040C9463040C9463040C94630444
:1000A0000C9463040C9463040C9463040763423659
:1000B000B79BD8A71A39685618AEBAAB558C1D3CF9
:1000C000B7CC5763BD6DEDFD753EF6177231BF00BD
:1000D0000000803F05A84CCDB2D44EB93836A902F5
:1000E0000C50B9918688083CA6AAAA2ABE00000036
:1000F000803F00005F00600061002A0000005C009B
:100100005D005E005700000059005A005B00560079
:10011000AE000158620063002E0000000100D05CB8
:10012000D55C530000000100CE5CCF5CC35C0000D6
:100130000100C55CC65CC45C02510100C95CCA5CBC
:10014000C25C0000010001000100005C0000010031
:100150000100010001000000010001000100010098
:100160000100010001000100010044454255473AE9
:100170002064697361626C65642E0A0044454255CF
:10018000473A20656E61626C65642E0A000A00259C
:10019000303862003A200025303258000A722F634E
:1001A0002030313233343536370A007267626C6979
:1001B0006768742074696D65722064697361626C2C
:1001C000652E0A007267626C696768742074696DD5
:1001D000657220656E61626C65642E0A00726762EA
:1001E0006C696768742073657420687376205B4E51
:1001F0004F454550524F4D5D3A2025752C25752CA5
:1002000025750A007267626C69676874207365748B
:1002100020687376205B454550524F4D5D3A20254E
:10022000752C25752C25750A007267626C696768E4
:1002300074207261696E626F7720736574206873D1
:10024000763A2025642C25642C25642C25750A001B
:100250007267626C696768742064697361626C6557
:10026000205B4E4F454550524F4D5D3A20726762BC
:100270006C696768745F636F6E6669672E656E612F
:10028000626C65203D2025750A007267626C6967A3
:1002900068742064697361626C65205B45455052E7
:1002A0004F4D5D3A207267626C696768745F636F77
:1002B0006E6669672E656E61626C65203D202575EE
:1002C0000A007267626C6967687420656E61626CAF
:1002D00065205B4E4F454550524F4D5D3A20726749
:1002E000626C696768745F636F6E6669672E656EBE
:1002F00061626C65203D2025750A007267626C6939
:1003000067687420656E61626C65205B454550527C
:100310004F4D5D3A207267626C696768745F636F06
:100320006E6669672E656E61626C65203D2025757D
:100330000A007267626C6967687420746F67676C23
:1003400065205B454550524F4D5D3A207267626CA7
:10035000696768745F636F6E6669672E656E616258
:100360006C65203D2025750A007267626C696768BC
:1003700074206D6F6465205B4E4F454550524F4D64
:100380005D3A2025750A007267626C69676874209F
:100390006D6F6465205B454550524F4D5D3A202599
:1003A000750A007267626C696768745F696E697468
:1003B000207267626C696768745F636F6E666967F5
:1003C0002E6D6F6465203D20302E20577269746554
:1003D0002064656661756C742076616C7565732048
:1003E000746F20454550524F4D2E0A007267626C63
:1003F000696768745F696E6974206565636F6E66AE
:100400006967206973206E6F7420656E61626C6528
:10041000642E0A007267626C696768745F696E694E
:1004200074207374617274210A007267626C696768
:1004300068745F696E69742063616C6C65642E0A10
:10044000007267626C696768745F636F6E66696784
:100450002E7370656564203D2025640A0072676212
:100460006C696768745F636F6E6669672E76616C2E
:10047000203D2025640A007267626C696768745FBA
:10048000636F6E6669672E736174203D2025640A70
:10049000007267626C696768745F636F6E66696734
:1004A0002E687565203D2025640A007267686C69B6
:1004B0006768745F636F6E6669672E6D6F64652031
:1004C0003D2025640A007267626C696768745F6327
:1004D0006F6E6669672E656E61626C65203D2025D2
:1004E000640A007267626C696768745F636F6E6646
:1004F000696720454550524F4D3A0A0000047F3F3E
:100500001F783C1E1E140A05FFAA7F5540000101FA
:1005100001010101010101020202020202020202C2
:100520000303030303030303040404040404040592
:100530000505050506060606060707070707080856
:100540000808090909090A0A0A0B0B0B0C0C0C0D07
:100550000D0D0E0E0E0F0F0F1010111111121213A0
:10056000131414151516161717181819191A1A1B1B
:100570001B1C1D1D1E1E1F2020212222232424257A
:100580002626272829292A2B2C2D2D2E2F303132B3
:1005900032333435363738393A3B3C3D3E3F4041C3
:1005A00042434445464748494A4C4D4E4F505153AB
:1005B00054555658595A5B5D5E5F61626465666862
:1005C000696B6C6D6F7072737577787A7B7D7E80E6
:1005D00082838587888A8C8E8F91939596989A9C32
:1005E0009EA0A2A3A5A7A9ABADAFB1B3B5B7BABC46
:1005F000BEC0C2C4C6C9CBCDCFD1D4D6D8DBDDDF17
:10060000E2E4E7E9EBEEF0F3F5F8FAFDFF0A002586
:1006100030325820006B6579626F6172645F726579
:10062000706F72743A20000A0025303258006B65F2
:1006300079626F6172645F7365745F6C65643A20A0
:1006400000290A002575002F002575005D2800256A
:10065000640020002564002000256400200025643B
:10066000007C0025303258006D6F7573656B6579BD
:10067000205B62746E7C782079207620685D287219
:1006800065702F61636C293A205B005B735D004BE2
:100690006579626F6172642073746172742E0A00EE
:1006A0005B575D005B535D005B525D005B445D002A
:1006B0005B435D000403300000001003640075001C
:1006C0006D006200700061006400000016036900A4
:1006D0006D00630068006900700077006F006F00B4
:1006E000640000000403090409025B00030100A088
:1006F000FA090400000103010100092111010001B0
:100700002240000705810308000A090401000103D3
:100710000000000921110100012281000705820368
:1007200020000A090402000203000000092111014F
:1007300000012222000705830320000107050303AF
:100740002000011201100100000008AFDE130901B2
:1007500000010203010631FF0974A10109751500AA
:1007600026FF009520750881020976150026FF00F6
:10077000952075089102C005010902A101850209B1
:1007800001A1000509190129051500250195057527
:1007900001810295017503810105010930093115B7
:1007A00081257F95027508810609381581257F9579
:1007B0000175088106050C0A38021581257F95010F
:1007C00075088106C0C005010980A10185031901D2
:1007D0002AB700150126B700950175108100C005E4
:1007E0000C0901A101850419012AA002150126A006
:1007F00002950175108100C005010906A1010507D8
:1008000019E029E715002501950875018102950178
:10081000750881010507190029FF150026FF0095BD
:1008200006750881000508190129059505750191CE
:1008300002950175039101C011241FBECFEFDAE0CC
:10084000DEBFCDBF04B603FE27C08091B2029091F7
:10085000B302A091B402B091B5028730904BA7408B
:10086000B04BD1F41092B2021092B3021092B402C3
:100870001092B50214BE84B7877F84BF0FB6F89478
:10088000A89580916000886180936000109260005C
:100890000FBEE0E0F8E3099511E0A0E0B1E0E6E882
:1008A000F5E602C005900D92A83CB107D9F722E009
:1008B000A8ECB1E001C01D92A23BB207E1F70E9493
:1008C0003B290C9485320C940000FF93EF93E09148
:1008D000C801F091C901309709F00995EF91FF9196
:1008E0000895FC018591803011F0EFDFFBCF089572
:1008F000FF27E0E230E247FF0CC0419597FF09C0B7
:10090000EDE26095709580959095611D711D811D3A
:10091000911D27FF02C0219530E350E2AA27660F00
:10092000771F881F991FAA1FA41710F0A41B639597
:100930005A95A9F7AA3008F0A95FA05DAF93F39587
:10094000611571058105910541F7ED3211F4EF93C1
:10095000F395F21718F43F93F395FBCF8F91B5DF22
:10096000FA95E1F70895E991F9918591803021F0A8
:10097000853219F0AADFF9CF089520E0E894559167
:100980005532C1F3503311F4689455915A3348F4F9
:10099000505390F3220F022E220F220F200D250F0D
:1009A000F4CF0EF4219589919991533619F3533769
:1009B00029F1533559F1BC0188279927E8945C3611
:1009C00021F48991999168945591543639F446EF00
:1009D0007EF077FF0DC08FEF9FEF0AC055374AE0DA
:1009E00039F0583540E121F0523642E009F00895DF
:1009F000FF93EF937DDFEF91FF91B7CFFF93EF93DD
:100A0000FC0181918030B9F360DFFBCFFF93EF935E
:100A100068DFF1CFDF93CF93CDB7DEB72596A3DFA5
:100A2000CF91DF910895269A219A209A559A2E986F
:100A300029980C9422172E9829980895CF92DF9226
:100A4000EF92FF926B017C010E94722180FF0CC02B
:100A50002E9A81FF0BC0299AC701B601FF90EF9033
:100A6000DF90CF900C940E1F2E98F3CF2998F4CFDF
:100A700082E090E05D9A2FEF31EE44E0215030406B
:100A80004040E1F700C000005D982FEF31EE44E0F8
:100A9000215030404040E1F700C000005D982FEF4A
:100AA00031EE44E0215030404040E1F700C000000A
:100AB0005D9A2FEF31EE44E0215030404040E1F7A5
:100AC00000C00000019721F4289A5D9A0C947405E7
:100AD00081E090E0CFCF0C9475050C9471050C94D7
:100AE000760581E008950895089508950895CF93B7
:100AF000C62F81114BC060915302709154028091B6
:100B00005502909156020E947221882329F081306B
:100B1000F9F0CC23D9F00DC0CC2369F0299A2FEF3E
:100B200080E792E0215080409040E1F700C0000053
:100B3000299889EF1BC02E9A2FEF80E792E0215071
:100B400080409040E1F700C000002E988AEF0EC070
:100B5000CC2379F028982FEF80E792E02150804055
:100B60009040E1F700C00000289A89EACF910C94E8
:100B7000AC185D982FEF80E792E0215080409040C4
:100B8000E1F700C000005D9A8AEAF0CFCF910895A6
:100B900081E0089508950C94CA051F93CF93DF93C5
:100BA00000D000D00F92CDB7DEB749835A836B8354
:100BB00030910B0289819A8131111DC06623B9F0F1
:100BC0002223A9F00E942920182F682F89819A8159
:100BD0000E94D21F69817A81812F0F900F900F9010
:100BE0000F900F90DF91CF911F910C94AB060E9454
:100BF0000020182FEFCF0E94292069817A81EDCF44
:100C0000FC01262F408151816281738184810C9483
:100C1000CD05CF93DF93EC0160E00E940006BE019A
:100C2000DF91CF910C94CB050E94C4230E94DD215B
:100C3000811102C00E947A220C9438050C946B0535
:100C400081E008950C942006CF93C82F0E946F0571
:100C50008C2FCF910C9422060E943B1B0E941B05F7
:100C60002FEF84E39CE0215080409040E1F700C0EA
:100C700000000C94B1230F931F93CF93DF9300D008
:100C8000CDB7DEB78C0161E00E9400069A838983AC
:100C9000B801CE0101960E947913811108C080E04D
:100CA0000F900F90DF91CF911F910F910895B80190
:100CB00089819A810E946D05882389F3B801898111
:100CC0009A810E94DA11882351F3B80189819A81AF
:100CD0000E942C12882319F3B80189819A810E94FD
:100CE0004F138823E1F2B80189819A810E9466102E
:100CF0008823A9F2F8018281882329F189819A81C8
:100D00008130FCE59F0751F08F3D2CE59207C1F043
:100D100081159C45C1F40E942C06C1CF90916802B8
:100D2000892F8E7F90FF81608093680280FF05C0CD
:100D30008CE791E00E947104B2CF8AE691E0FACF8D
:100D40000E947A22ACCFC8010E94C805A9CF90E0CA
:100D500080E008950895972F70E025E0929F600D40
:100D6000711D1124FB0194E1899FE00DF11D1124F7
:100D7000EE0FFF1FEE50FF4F859194910895FC01F7
:100D8000EE0FFF1FE357FE4F859194910895CF9387
:100D9000DF930E94AB060E94DC07EC01811520E581
:100DA000920708F042C0811530E4930708F0BDC0F7
:100DB000883E910528F5803E910508F09DC0883A4F
:100DC000910588F4853A910508F08FC0813091052E
:100DD00009F492C0009709F48FC0049708F08CC002
:100DE000D0E0C0E089C08F3B910508F489C0805CE9
:100DF0009109C03CD105A0F30E94BF06EC017CC064
:100E00008115904250F4C11581E0D80708F074C0F4
:100E1000C03FD10528F3D0656FC0C11590E3D90755
:100E200008F079C0CE019F70E7CF811525E59207C4
:100E300058F5811534E5930708F0A6C0811542E501
:100E4000940750F4C11581E5D80708F471C0DC2F70
:100E5000CC27C16FD06A50C0982F969596959E0169
:100E600023703327C115D34508F07FC0C1E0D0E01F
:100E700002C0CC0FDD1F2A95E2F720E2929FC0014D
:100E80001124C82BD92B6FC0C11589E5D807A8F448
:100E9000C11598E5D90708F07CC0C11526E5D20731
:100EA00008F09ECF8C2F0E947308C82FD0E0DC2F53
:100EB000CC27CC27DF71D0621FC0C1153AE5D3071C
:100EC00008F46CC0CE0190568115904208F088CF8E
:100ED0008D2F8F710E94730890E0982F88278827A4
:100EE0009F719C012C2BE901E6CFC55AD0E0CB5A6B
:100EF000DE4FC881D0E0D064CE01DF91CF9108955C
:100F0000C85AD0E0CC0FDD1FC95DDE4F0990D881F3
:100F1000C02DD464F1CFCE019927D3FF03C0EC01DB
:100F2000D86CEACFEC01D06CE7CFDF70D06AE4CFA9
:100F3000CE01E4E096958795EA95E1F783702C2F32
:100F400026952695237090E2299F90011124382B35
:100F50008C2F8370C1E0D0E002C0CC0FDD1F8A95DA
:100F6000E2F7C22BD32BDC68C7CFC1E0D0E002C0D0
:100F7000CC0FDD1F2A95E2F730E2939FC0011124C8
:100F8000C82BD92BDA68B8CFD82FCC27C46FD06A3A
:100F9000B3CFDC2FCC27C06FD06AAECF8C2F8F7031
:100FA0000E94730834E0D695C7953A95E1F7CF7063
:100FB0009C2FEC01D069A0CF82389105B1F1B0F43B
:100FC0008133910509F475C048F48932910509F41B
:100FD00069C08A32910509F473C00895853391057B
:100FE00009F459C08933910501F10895833E9105B3
:100FF000A9F138F4803E9105F9F0823E910549F15E
:101000000895863E9105A9F1873E9105C9F1843E78
:10101000910519F52091A40221FF1FC08091A30220
:1010200084FD14C087EE90E008952091A302237000
:10103000A1F080EE90E008952091A30220FD47C02A
:101040003091A40230FF09C024FF44C090E080E04A
:1010500004C02091A30222FDF7CF08952091A3029E
:1010600022FD3BC03091A40230FDE3CF24FFF5CF39
:10107000EDCF2091A30223FFF0CF24FDE7CFD2CF05
:101080002091A30223FD2CC03091A40231FFEECFAA
:1010900084EE90E008952091A30225FFDECF89E23F
:1010A00090E008952091A30225FFD7CF85E390E03B
:1010B00008952091A30226FFD0CF8AE290E0089500
:1010C0002091A30226FFC9CF81E390E0089589E330
:1010D00090E0089583EE90E0089582EE90E0089508
:1010E00086EE90E008959091A30292FF06C0282F0B
:1010F00028712830F9F4877F846093FF06C0282F79
:1011000028712831F1F4877E84612091A40220FFA8
:1011100006C0382F38713830D9F4877F816021FFBD
:1011200006C0282F28712831D1F4877E816194FD73
:10113000877E0895282F24712430F9F68B7F8860EC
:10114000DCCF282F2471243101F78B7E8861DDCF1D
:10115000382F3171313019F78E7F8860E0CF282F1A
:101160002171213121F78E7E8861E1CFE82FF0E0F7
:10117000E657FD4F80810895CF92DF92EF92FF9264
:101180000F931F93CF93DF938CE991E00E9471043A
:101190008AE8E82E82E0F82ED0E0C0E097E9C92E78
:1011A00091E0D92E0FE811E0DF93CF93DF92CF9239
:1011B0000E940A0584E991E00E947104F70181917F
:1011C0007F010E94BF211F928F931F930F930E9454
:1011D0000A058DE891E00E94710421968DB79EB7B3
:1011E00008960FB6F8949EBF0FBE8DBFC430D105D0
:1011F000D9F6DF91CF911F910F91FF90EF90DF9083
:10120000CF90089580EA8A95F1F70895CF93DF9300
:10121000ADE5B1E041E651E0C1E0D0E08D91E82FCD
:10122000E295EF70F0E061A18F709E0101C0220F86
:101230008A95EAF7922F9095962391A382A1822B0B
:1012400082A34A175B0751F7A8E5B1E04DE551E0ED
:10125000C1E0D0E08D91E82FE295EF70F0E061A160
:101260008F709E0101C0220F8A95EAF7922F909508
:10127000962391A382A1822B82A34A175B0751F781
:101280001092860210928A021092870210928B02AC
:101290001092880210928C021092890210928D0294
:1012A00084E00E94D709DF91CF910C9414068F92AD
:1012B0009F92AF92BF92CF92DF92EF92FF920F93E5
:1012C0001F93CF93DF938DE5A82E81E0B82E06E81B
:1012D00012E0912CCC24C394D12CF50181915F01B3
:1012E000C82FC295CF70D0E099A18F70760101C050
:1012F000EE0C8A95EAF7892F8E2989A38AA18E2C74
:10130000809488218AA30E940209E8E5F1E050E078
:1013100040E020E03191A32FA295AF70B0E090960D
:101320008C9190E03F7002C0959587953A95E2F7D1
:1013300080FD39C08C2D042E01C0880F0A94EAF775
:10134000282B4F5F5F4F4530510521F789A1882237
:1013500089A28AA1E82AEAA2F8018081281729F146
:10136000208381E0982A0F5F1F4FF1E6AF16F1E06E
:10137000BF0609F0B2CF292D44E06AE872E086E8A2
:1013800092E00E94D8090E941E06892DDF91CF911C
:101390001F910F91FF90EF90DF90CF90BF90AF9093
:1013A0009F908F90089580E0CBCF80E0DBCF0895B1
:1013B000FF920F931F93CF93DF93F82E092F162FD1
:1013C000D72FC42F222349F081E08093CC010E94C3
:1013D00072239093CB018093CA018091CC01882322
:1013E000A1F08091CA019091CB010E947E230697C3
:1013F00060F0EF2DF02FA12FBD2FCE0FDF2FD11DCD
:10140000EC17FD0741F41092CC01DF91CF911F91B1
:101410000F91FF90089581918D93F2CFEF92FF92FB
:101420000F931F93CF93DF93EB01E82FD11110C0DF
:10143000442321F0F0E0E35FFA4FE4916E2F7E2F1A
:101440008E2FDF91CF911F910F91FF90EF90089514
:101450000D2F10E0282F30E0442329F0235F3A4F6E
:10146000F901249130E0F6E0CF9FC0011124EFEFA5
:10147000F0E0BF010E94E031AB018C2F90E0880FBB
:10148000991FA5E5A49FB001A59F700D1124861B8F
:10149000970B982F990F980FBF01601B710B629FDC
:1014A000D001639FB00D729FB00D11248B2F9D9FB3
:1014B000B0011124672F7727EF01C61BD70BBE01A0
:1014C000629FE001639FD00D729FD00D11247F01B8
:1014D000E91AF108E09EB001E19E700DF09E700DDA
:1014E0001124672F7727E61BF70BE29F8001E39F0C
:1014F000100DF29F100D1124E12F722F4230510573
:1015000099F048F44115510569F04130510581F0D9
:10151000EB2F8D2F07C04430510569F080F0463025
:101520005105B1F76E2F8DCFE22F7B2F812FFACF90
:10153000E22F7D2FF7CFEB2F822F712FF3CF7B2F51
:10154000822FED2FEFCF41E00C940E0A0895CF9338
:10155000DF93762FE901682F842F0E94A30A7983F5
:1015600068838A83DF91CF91089580918E02982FAE
:101570009E7F29F48170826080938E0208958E325E
:10158000E8F381708C62F8CF88E090E00C944532EB
:10159000CF92DF92EF92FF926B017C010E94B50A1D
:1015A000B701A60188E090E0FF90EF90DF90CF9028
:1015B0000C946332EEE8F2E083E0808311828FEFD7
:1015C00082838383148260817181828193810C94F0
:1015D000C80A8091680280FF76C083EE94E09F93F2
:1015E0008F930E940A05809168020F900F9080FFF0
:1015F0006AC080918E0281701F928F9386EC94E076
:101600009F938F930E940A05809168020F900F901C
:101610000F900F9080FF57C080918E0286951F9289
:101620008F938BEA94E09F938F930E940A05809199
:1016300068020F900F900F900F9080FF44C0809130
:101640008F021F928F9381E994E09F938F930E9462
:101650000A05809168020F900F900F900F9080FF05
:1016600032C0809190021F928F9387E794E09F93FE
:101670008F930E940A05809168020F900F900F903F
:101680000F9080FF20C0809191021F928F938DE573
:1016900094E09F938F930E940A05809168020F90B7
:1016A0000F900F900F9080FF0EC0809192021F92BA
:1016B0008F9381E494E09F938F930E940A050F908B
:1016C0000F900F900F90089580918E0280FF02C0BE
:1016D0008695089580E0089590919202933018F4D1
:1016E0009F5F90939202882351F060918E027091D7
:1016F0008F0280919002909191020C94C80A0895F3
:1017000081E00C946C0B90919202992319F0915006
:1017100090939202882351F060918E0270918F0213
:1017200080919002909191020C94C80A089581E0F2
:101730000C94830B70E00C94CE10609103018091A7
:101740008E0280FF0AC08091020123E0829FC001C7
:1017500011248D569D4F0C949A0B80910401909109
:10176000050123E0829FF0011124ED56FD4F8917FA
:1017700050F71182108212828F5F3396F8CF9091CA
:101780008E0290FF14C0909104012091050133E076
:10179000939FF0011124ED56FD4F921710F00C9419
:1017A0009D0B8183608342839F5F3396F6CF0895BC
:1017B000CF93DF9300D00F92CDB7DEB790918E021A
:1017C00090FF0AC09E012F5F3F4F0E94A70A4B81E6
:1017D00069818A810E94BF0B0F900F900F90DF915B
:1017E000CF910895CF93DF93EC016C8170E090E08E
:1017F00080E00E94D52F20E030E04FE753E40E94C4
:10180000F82E2BED3FE049E450E40E94FE300E94A8
:101810006B310E94722F2BE43AE34EE25FE30E94A9
:101820008B2E20EF3BEF48ED52E40E94FE300E94E9
:10183000A42F462FEEE8F2E0628181810E94D80B4E
:101840008C818F5F8C83DF91CF910895CF93DF934D
:10185000EC01EEE8F2E0438162818C810E94D80BBA
:101860008C818F5F8C83DF91CF9108950F931F93AD
:10187000CF93DF9300D00F92CDB7DEB78C0180916C
:10188000CD0181110AC09E012F5F3F4F4FEF6FEFD7
:101890000E94A70A8A818093CD01F801648161309A
:1018A00069F08091CD0140E0662361F040E0623054
:1018B00011F44091CD0180E060E004C06091CD0161
:1018C00040E080E00E94BF0BF801848190E0019627
:1018D00063E070E00E94F43184830F900F900F90CA
:1018E000DF91CF911F910F9108954F925F926F9268
:1018F0007F928F929F92AF92BF92CF92DF92EF92A0
:10190000FF920F931F93CF93DF9300D00F92CDB729
:10191000DEB7182FD62E042F722E80918E0280FFF4
:1019200046C0E82FE695AE2FB0E0AF59BE4F9C9170
:101930009093D6018E7F823009F04DC09E012F5FBB
:101940003F4F812F0E94A70A4B8169818A810E94A3
:10195000BF0B10938F02D0929002009391027720D8
:1019600009F49AC060918E0270918F02809190026A
:10197000909191020E94C80A8091680280FF17C06E
:10198000809191021F928F93809190021F928F936A
:1019900080918F021F928F9384E092E09F938F93A8
:1019A0000E940A050FB6F894DEBF0FBECDBF0F90A0
:1019B0000F900F90DF91CF911F910F91FF90EF90BB
:1019C000DF90CF90BF90AF909F908F907F906F905F
:1019D0005F904F900895923019F400919102B9CF21
:1019E000963019F410918F02B4CF9C3009F0B1CF2A
:1019F000EC508E2F8170682E8E2F80958170C82EAE
:101A0000E695F0E0E85FFA4FE590F490412CFF2472
:101A100099E2A92E92E0B92E60910601461618F0BF
:101A20000E949D0B96CF842C912C8E9CC0018F9C84
:101A3000900D9E9C900D112470E00E94E031512E7B
:101A4000611028C0560E8091680280FF11C0FF927D
:101A5000EF921F92CF921F925F921F924F92BF926E
:101A6000AF920E940A050FB6F894DEBF0FBECDBF3D
:101A700020910401820E911C9401220F331F280D26
:101A8000391D2D563D4F402F6D2D852D0E94A70AE3
:101A90004394C2CF561AD7CF8091680280FF87CF78
:101AA0001F920F931F92DF921F921F938DED91E073
:101AB00075CFEEE8F2E09181282F4381628188E0C2
:101AC000890F0C94750C81E00C94590DEEE8F2E04E
:101AD0009181282F4381628188EF890F0C94750CC6
:101AE00081E00C94660DEEE8F2E0628128E0620F7E
:101AF00008F46FEF282F438181810C94750C81E0ED
:101B00000C94730DEEE8F2E0628128E0621B08F4A9
:101B100060E0282F438181810C94750C81E00C9446
:101B2000820DEEE8F2E0438128E0420F08F44FEF27
:101B3000282F628181810C94750C81E00C94910DA9
:101B4000EEE8F2E0438128E0421B08F440E0282F51
:101B5000628181810C94750C81E00C94A00D20E0D1
:101B60000C94750C0F931F93CF93DF938091040116
:101B70009091050123E0829FF0011124ED56FD4F65
:101B8000891740F1C0E0D3E060910601C61740F12B
:101B90000E949D0B209100018091CE01820F8093C5
:101BA000CE0190910101920F90930101191654F406
:101BB000082E000C990B409106014150550B8417DB
:101BC00095071CF0219520930001DF91CF911F9183
:101BD0000F9108951182108212828F5F3396D0CFB9
:101BE0000C2F10E070E0C8010E94F4312091040134
:101BF000820F482F50E02091CE01022E000C330BB3
:101C000002171307BCF020910101022E000C330BC8
:101C1000201731077CF08D9F900111242D563D4FE8
:101C2000409191026091900280918F020E94A70AD8
:101C3000CF5FAACFFA01EE0FFF1FE40FF51FED569D
:101C4000FD4F118210821282F3CF60918E02669551
:101C500070E04BE050E087E091E00E943032892B49
:101C600019F481E08093D7010E9472239093D001F0
:101C70008093CF018091680280FF08C084EC91E0DE
:101C80009F938F930E940A050F900F9008951092D2
:101C9000D7018091680280FF08C08BEA91E09F9392
:101CA0008F930E940A050F900F90089590918E02D5
:101CB00090FF54C0917081113BC0926090938E024E
:101CC0006623E9F160918E0270918F0280919002FB
:101CD000909191020E94C80A8091680280FF0FC013
:101CE00080918E0286951F928F9387E893E09F9351
:101CF0008F930E940A050F900F900F900F906091A4
:101D00008E02669570E04BE050E087E091E00E9423
:101D10003032892B01F10E94470E81E08093D2017D
:101D2000409191026091900280918F020C94AF0DCE
:101D3000873110F09C62C2CF880F982BBFCF809163
:101D4000680280FFDCCF80918E0286951F928F9370
:101D500089E693E0CCCF0E94250EDFCF0895682F4F
:101D600090918E02969581E0890F873108F081E08D
:101D70000C94560E81E00C94AF0E682F90918E0259
:101D800096958FEF890F09F486E10C94560E81E049
:101D90000C94BD0E61E00C94560E80918E02816011
:101DA00080938E028091680280FF0DC01F9281E0B7
:101DB0008F938BEF92E09F938F930E940A050F9071
:101DC0000F900F900F9080918E0286950C94CA0E02
:101DD00060E00C94560E8091D501811160C0809115
:101DE000680280FF14C08AE294E09F938F930E9460
:101DF0000A05809168020F900F9080FF08C084E16F
:101E000094E09F938F930E940A050F900F900E9479
:101E1000DD21811110C08091680280FF08C08CEE26
:101E200093E09F938F930E940A050F900F900E945A
:101E30007A220E94DA0A0E94C40A60938E0270938A
:101E40008F0280939002909391026E7FC1F48091F3
:101E5000680280FF08C083EA93E09F938F930E94FB
:101E60000A050F900F900E94DA0A0E94C40A60933C
:101E70008E0270938F0280939002909391020E9441
:101E8000B50A0E94E90A1092D70180918E0280FF64
:101E900003C086950E94E80E81E08093D5010895E5
:101EA00080918E02816080938E028091680280FF13
:101EB0000DC01F9281E08F9382EC92E09F938F93ED
:101EC0000E940A050F900F900F900F9080918E0244
:101ED00086950C94E80E80918E028E7F80938E0200
:101EE00060918E0270918F02809190029091910288
:101EF0000E94C80A8091680280FF0FC080918E0204
:101F000081701F928F938AE892E09F938F930E9433
:101F10000A050F900F900F900F900E94470E2FEF21
:101F200080E792E0215080409040E1F700C000003F
:101F30000C949D0B8091680280FF10C080918E02EE
:101F4000809581701F928F9382E393E09F938F938C
:101F50000E940A050F900F900F900F9080918E02B3
:101F600080FD0C946B0F0C94CD0E80918E028E7FB1
:101F700080938E028091680280FF0CC01F921F9296
:101F800080E592E09F938F930E940A050F900F9037
:101F90000F900F900E94470E2FEF80E792E02150A4
:101FA00080409040E1F700C000000C949D0B0F931F
:101FB0001F93CF93DF938091D701882309F467C0E3
:101FC0008091D601E0918E02E695E81BE093D10165
:101FD0008230C9F5F0E0EC5FFA4FE491CE2FD0E00B
:101FE00002EF1BE08091D201882389F01092D20188
:101FF0000E9472239E0120953095820F931F90932B
:10200000D0018093CF011092D4011092D30180911E
:10201000CF019091D0010E947E238C179D0708F478
:1020200036C0E091CF01F091D001CE0FDF1FD093E9
:10203000D001C093CF018FEC91E0F801DF91CF91F7
:102040001F910F910994863049F4F0E0EF5FFA4F49
:10205000E491CE2FD0E006E21CE0C4CF893049F4F1
:10206000F0E0E250FB4FE491CE2FD0E002EB1DE018
:10207000B9CFC0EDD7E006EA1AE0863109F0B2CF59
:10208000ECEFF4E0C591D49106E31CE0ABCFDF9117
:10209000CF911F910F910895FA01811101C0FB01A9
:1020A0000994CF93DF93C82FD62F0E94640B8C170F
:1020B00040F00E94640B8D1720F4DF91CF910C94B7
:1020C000BA0E8C2FDF91CF910C94CA0E0F931F93F1
:1020D000CF938C01FB01C281CC2309F45DC00E9427
:1020E000BE208272F801E25CFC45E431F10538F46F
:1020F000E957FD4C0C9408320E949A0FC0E08C2FD7
:10210000CF911F910F91089547EC5EE06AEB7EE05E
:102110000E944C10F3CF4AEB5EE067EC7EE0F8CF14
:1021200040E75DE063E67DE0F3CF43E65DE060E736
:102130007DE0EECF4EE85DE06FE77DE0E9CF4FE771
:102140005DE06EE87DE0E4CF4CEA5DE06DE97DE0C6
:10215000DFCF4DE95DE06CEA7DE0DACF47E95BE097
:1021600060E87BE0D5CF40E85BE067E97BE0D0CF7B
:1021700081E00E94CA0EC2CF65E082E00E94511049
:10218000BDCF68E086E0FACF6BE089E0F7CF65E18C
:102190008CE0F4CF86E1EDCFC1E0B1CF239A45B119
:1021A000477F55B15860EFB7F8949B01220F331F5A
:1021B000260F371F280F391F2817390741F4EFBFA3
:1021C0008FE594E00197F1F700C000000895DC016D
:1021D0006D91CD0178E055B9000000C067FF45B9A9
:1021E000660F000000C000C000C045B900C07A956D
:1021F00091F7E2CF0C94770554985C9A22982A9A2A
:1022000089B1829581701A9905C090E0892B8093DD
:10221000DA01089592E0FACFE091DA01EE0FEE0FC5
:10222000E093DA0149B144FB882780F943B142FBCE
:10223000222720F942FF02C022E030E0822BE82B67
:10224000E093DA01EF70F0E0E858FE4F8081909162
:10225000D901890F8093D90184304CF08091D80145
:102260008F5F8093D80160E080E00E94FA10809137
:10227000D9018D3F4CF48091D80181508093D801D1
:1022800061E080E00E94FA108091D901837887FF95
:1022900003C081508C6F8F5F8093D9010895AF92F6
:1022A000BF92CF92DF92EF92FF920F931F93CF9343
:1022B000DF937C015B01C42FD22FFC018281882334
:1022C000F9F04093DD010E9472239093DC0180932A
:1022D000DB0180E28C0F883008F061C0C77081E0BC
:1022E00001C0880FCA95EAF7DF91CF911F910F9136
:1022F000FF90EF90DF90CF90BF90AF900C94BF18FD
:102300001091DD01141340C08091DB019091DC013C
:102310000E947E236C01B701C5010E94B11DC81641
:10232000D90690F5C0E2CD0F1D17B9F080E2810FFC
:10233000883040F4177081E001C0880F1A95EAF7E1
:102340000E94C618C83048F481E09D2F977001C0E4
:10235000880F9A95EAF70E94BF18802F0E94AC1848
:10236000C830E8F4D77081E001C0880FDA95EAF749
:10237000DF91CF911F910F91FF90EF90DF90CF9061
:10238000BF90AF900C94C61880E28C0F883038F460
:10239000C77081E001C0880FCA95EAF7E9CFDF91E5
:1023A000CF911F910F91FF90EF90DF90CF90BF9052
:1023B000AF9008950F939C01CB01243F4CE5340767
:1023C00059F1A8F4283DFCE53F0701F1293D4CE512
:1023D0003407D1F1273D3C4591F406E221EE41EE70
:1023E00067ED7CE50E944F1180E00F910895263F34
:1023F000FCE53F07E9F0B0F0273F3C45F9F0FC0170
:102400008281882339F11092DD01EFCF07E225EEBA
:1024100045EE68ED7CE5E6CF06E221EE40EE64EFA6
:102420007CE5E0CF07E225EE44EE65EF7CE5DACF10
:1024300006E221EE42EE66EF7CE5D4CF07E225EE20
:1024400046EE67EF7CE5CECF08E221E045EE69ED90
:102450007CE5C8CF81E0C9CFCF93DF93EC01FB01CE
:102460008281882309F419C1C230FCE5DF07C0F17D
:10247000C6319CE5D90730F09E012B5F3C452930E1
:10248000310570F50E94F0219093A4028093A3027D
:10249000C031ECE5DE0709F4CFC008F05BC0C830FE
:1024A0008CE5D80709F4B6C088F5C430ECE5DE0742
:1024B00009F4A8C0C0F4C2308CE5D80709F49CC068
:1024C0008091A3028260C330DC4509F498C08091FA
:1024D000A3029091A4020E94FE210E943B1B80E077
:1024E000DF91CF9108958091A3028061C630ECE521
:1024F000DE0709F484C08091A3028860C730DC4500
:1025000008F47DC08091A302806279C0CC308CE554
:10251000D80709F489C070F48091A3028C60CA3096
:10252000ECE5DE0709F46BC008F478C08091A302E3
:102530008E7F65C0CE308CE5D80709F479C08091D4
:10254000A3028B7FCF30DC4508F459C08091A302F1
:102550008F7E55C0CC3FECE5DE0709F457C030F55F
:10256000C3318CE5D80709F46FC078F4C131ECE5CC
:10257000DE0709F465C0C231DC4509F0A8CF0E942E
:102580003B1B8091A3028F773AC0C5318CE5D807F9
:1025900009F462C008F476C08091A4028160CB3F48
:1025A000DC4509F094CF8093A40291CFC115FDE5DD
:1025B000DF0709F44DC088F48091A4028D7FCE3FDF
:1025C0009CE5D90781F38091A4028E7FCF3FDC4543
:1025D00050F38091A4028360E6CFC230FDE5DF07AF
:1025E00009F459C008F444C080E0C330DD4509F067
:1025F0006ECF0E947C226BCF8091A302816080937A
:10260000A30265CF8091A3028460F9CF8091A402D8
:102610008260C9CF8091A3028064F1CF0E943B1BEE
:102620008091A3028068EBCF8091A3028D7FE7CFDA
:102630008091A302877FE3CF8091A3028F7DDFCFBC
:102640008091A3028F7BDBCF8091A302837FD7CFC2
:102650008091A4028C7FA7CF8091A30282FB99274F
:1026600090F921E0922790FB82F990FB83F9C7CF84
:102670008091A402982F909591708E7F892B90FB6A
:1026800081F991CF0E943B1B9091A302892F97FB68
:1026900087F98058B4CF81E0ACCF81E021CFCF93D0
:1026A000DF93EB0186319C4511F50E94BE209A8193
:1026B000992399F08A7A91E009F490E09093DE01F1
:1026C000811109C089E20E9499200E940A2180E0BC
:1026D000DF91CF91089585E3F6CF8091DE018111DE
:1026E00004C089E20E94A020F0CF85E3FBCF81E007
:1026F000EFCF4F925F926F927F928F929F92AF92A5
:10270000BF92CF92DF92EF92FF920F931F93CF93DE
:10271000DF93EC01E881F981CF01815095458F3F2E
:10272000910510F485E5F827DB0112964C904420C2
:1027300009F466C2EF3FF10509F100F1EE3DFC45F9
:1027400021F01092DF01A42D07C08091DF0191E0FC
:1027500089278093DF01A0E08A2FDF91CF911F911D
:102760000F91FF90EF90DF90CF90BF90AF909F9030
:102770008F907F906F905F904F900895A091DF01B0
:10278000AA2309F4E9C01092DF01E03CF105F0F55D
:10279000E038F10508F0AAC0E034F10508F070C097
:1027A00021E030E040E050E060E070E080E090E068
:1027B0000E2F0E940E32B091E0012B2BB091E1015F
:1027C0003B2BB091E2014B2BB091E3015B2BB0911D
:1027D000E4016B2BB091E5017B2BB091E6018B2BD3
:1027E000B091E7019B2B2093E0013093E1014093EE
:1027F000E2015093E3016093E4017093E50180935B
:10280000E6019093E701F983E883A6CFEF3FF10556
:1028100009F030F621E030E040E050E060E070E0A8
:1028200080E090E08F01005C11090E940E32B091AF
:10283000F8012B2BB091F9013B2BB091FA014B2BF6
:10284000B091FB015B2BB091FC016B2BB091FD01B2
:102850007B2BB091FE018B2BB091FF019B2B209322
:10286000F8013093F9014093FA015093FB01609312
:10287000FC017093FD018093FE019093FF01C3CF93
:1028800021E030E040E050E060E070E080E090E087
:102890008F01005411090E940E32B091E8012B2BD8
:1028A000B091E9013B2BB091EA014B2BB091EB01C8
:1028B0005B2BB091EC016B2BB091ED017B2BB091B8
:1028C000EE018B2BB091EF019B2B2093E80130930D
:1028D000E9014093EA015093EB016093EC0170939E
:1028E000ED018093EE019093EF018DCF21E030E078
:1028F00040E050E060E070E080E090E08F01005840
:1029000011090E940E32B091F0012B2BB091F10110
:102910003B2BB091F2014B2BB091F3015B2BB091AB
:10292000F4016B2BB091F5017B2BB091F6018B2B51
:10293000B091F7019B2B2093F0013093F10140936C
:10294000F2015093F3016093F4017093F5018093C9
:10295000F6019093F70157CFE034F10508F067C016
:102960007090E0018090E1019090E201D091E3014C
:10297000C091E401B091E5015090E6016090E7015B
:1029800021E030E040E050E060E070E080E090E086
:102990000E2F0E940E3259016A017B018C01272102
:1029A0003B2D382149215D2D5D236C237F2D7B2319
:1029B0008521912F96210E94273209F0C4CEE03C58
:1029C000F10508F08EC0E038F10508F0EBC0E03406
:1029D000F10508F0B9C021E030E040E050E060E0EF
:1029E00070E080E090E00E2F0E940E32209530952E
:1029F0004095509560957095809590952721382148
:102A000049215D236C237B23852196212093E001BE
:102A10003093E1014093E2015093E3016093E401BC
:102A20007093E5018093E6019093E70195CEE0383D
:102A3000F105E0F47090E8018090E9019090EA01DE
:102A4000D091EB01C091EC01B091ED015090EE01FD
:102A50006090EF0121E030E040E050E060E070E0A5
:102A600080E090E08F010054110993CFE03CF10524
:102A7000E0F47090F0018090F1019090F201D0911B
:102A8000F301C091F401B091F5015090F60160900E
:102A9000F70121E030E040E050E060E070E080E0ED
:102AA00090E08F010058110974CF7090F801809068
:102AB000F9019090FA01D091FB01C091FC01B09115
:102AC000FD015090FE016090FF0121E030E040E008
:102AD00050E060E070E080E090E08F01005C110960
:102AE00058CFEF3FF10511F008F075CF8F01005C72
:102AF000110921E030E040E050E060E070E080E06B
:102B000090E00E940E32209530954095509560954A
:102B10007095809590952721382149215D236C235C
:102B20007B23852196212093F8013093F90140936E
:102B3000FA015093FB016093FC017093FD018093B7
:102B4000FE019093FF0108CE8F010054110921E08E
:102B500030E040E050E060E070E080E090E00E9413
:102B60000E322095309540955095609570958095E2
:102B700090952721382149215D236C237B238521D2
:102B800096212093E8013093E9014093EA015093A4
:102B9000EB016093EC017093ED018093EE01909353
:102BA000EF01DACD8F010058110921E030E040E05B
:102BB00050E060E070E080E090E00E940E322095EE
:102BC000309540955095609570958095909527210A
:102BD000382149215D236C237B2385219621209375
:102BE000F0013093F1014093F2015093F3016093AF
:102BF000F4017093F5018093F6019093F701ACCD49
:102C0000A1E0EF3FF10509F098F5E034F10590F50A
:102C10008090E0019090E101D091E201C091E30148
:102C2000B091E401A091E5016090E6017090E701A8
:102C300021E030E040E050E060E070E080E090E0D3
:102C40000E2F0E940E3259016A017B018C0128214E
:102C50003B2D39214D235D2D5C236B237F2D7A2362
:102C6000A1E08621912F97210E94273209F4A0E04C
:102C7000A17072CDE038F105E0F48090E801909009
:102C8000E901D091EA01C091EB01B091EC01A09172
:102C9000ED016090EE017090EF018F010054110979
:102CA00021E030E040E050E060E070E080E090E063
:102CB000C8CFE03CF105A0F48090F0019090F101C4
:102CC000D091F201C091F301B091F401A091F5010E
:102CD0006090F6017090F7018F0100581109E0CF64
:102CE0008090F8019090F901D091FA01C091FB0118
:102CF000B091FC01A091FD016090FE017090FF0178
:102D00008F01005C1109CCCF9093050280930402DF
:102D10000895E0910402F0910502309721F00190AE
:102D2000F081E02D099480E00895EF92FF920F93D7
:102D30001F93CF93DF938C01E0910402F091050281
:102D40003097C1F10280F381E02D099580916802EE
:102D500082FF30C080FF04C085E196E00E947104CC
:102D6000D0E0C0E08FE0E82E86E0F82E8091680287
:102D700080FF0EC0F801EC0FFD1F80811F928F9322
:102D8000FF92EF920E940A050F900F900F900F9004
:102D90002196C830D10551F78091680280FF0AC0A2
:102DA0008DE096E0DF91CF911F910F91FF90EF9012
:102DB0000C947104DF91CF911F910F91FF90EF90D0
:102DC0000895E0910402F0910502309739F022E075
:102DD000DC012C930480F581E02D09940895209165
:102DE0000202309103022817390771F09093030211
:102DF00080930202E0910402F0910502309721F0E5
:102E00000680F781E02D0994089520910002309109
:102E100001022817390771F0909301028093000294
:102E2000E0910402F0910502309721F00084F185D1
:102E3000E02D0994089585B7806885BF85B78068BF
:102E400085BF0895089508950C9473050E941B177B
:102E50000E9423170C94130581E008950C942C17FD
:102E60000E9469230E9406090E94D8230E94EB0E4B
:102E70000E94FC100C942417CF93C82F80916802F5
:102E800082FF1EC080FF1CC08EE296E00E9471048B
:102E90008091680280FF14C01F92CF9389E296E070
:102EA0009F938F930E940A05809168020F900F9064
:102EB0000F900F9080FF04C087E296E00E9471049B
:102EC0008C2FCF910C942406BF92CF92DF92EF9279
:102ED000FF920F931F93CF93DF93CDB7DEB72A975F
:102EE0000FB6F894DEBF0FBECDBF0E9457090E94F7
:102EF0002E17882309F463C087E0C82E82E0D82EFD
:102F000010E000E0B02E802F0E94B608E82EF601F7
:102F1000F1906F01F81609F44CC08091680281FDB0
:102F20000E94BC089F2D9E2580E0FF24F394292F4A
:102F30002F21D1F18E83BF82EF2081E009F480E060
:102F400088870E9472238160782F9A8789874E81B3
:102F50005F8168858A850E940018F801E95FFD4F4E
:102F60008081F826F0820E94D70F0E940C110E94E7
:102F700005260E94891690910602891789F10E9400
:102F80008916809306022A960FB6F894DEBF0FBE0C
:102F9000CDBFDF91CF911F910F91FF90EF90DF9008
:102FA000CF90BF900C943C178F5FFF0C853009F0D9
:102FB000BECF0F5F1F4F0430110509F0A3CF8FEF75
:102FC00089838A831B820E9472238160782F9D836C
:102FD0008C8349815A816B818D810E940018C3CFF7
:102FE0002A960FB6F894DEBF0FBECDBFDF91CF910A
:102FF0001F910F91FF90EF90DF90CF90BF900895B9
:10300000CF93DF93CDB7DEB72B970FB6F894DEBF23
:103010000FBECDBF4F83588769877A878B871E8203
:103020001D8285E0FE013796DE01119601900D921A
:103030008A95E1F749815A816B817C818D819E81DE
:103040002B960FB6F894DEBF0FBECDBFDF91CF91A8
:103050000C94B41DFC01808191810C946B20CF9362
:10306000C82F882309F447C08CEF8C0F813AA0F455
:103070006C2F80911201909113010E94932288235A
:1030800029F08C2F0E94A0200E940A218C2F0E94E0
:103090009920CF910C940A2180E28C0F883048F45B
:1030A000C77081E001C0880FCA95EAF70E94C1206D
:1030B000F0CFEBE5EC0FE33040F4F0E0EA54FE4FE4
:1030C000808190E0CF910C94EF16E8E5EC0FE731AA
:1030D00050F4F0E0EE0FFF1FE857FE4F8081918122
:1030E000CF910C940517C03F30F08C2F0E947D24A7
:1030F000CF910C946825CF910895882361F19CEFBE
:10310000980F913A20F40E94A0200C940A2190E29A
:10311000980F983050F4877091E001C0990F8A950C
:10312000EAF7892F0E94C720F0CF9BE5980F9330D4
:1031300020F490E080E00C94EF1698E5980F97311A
:1031400020F490E080E00C940517803F20F00E946E
:10315000E5240C9468250895CF93C82F0E942F185A
:10316000C93349F42FEF87EE93E02150804090401F
:10317000E1F700C000008C2FCF910C947D188823BC
:1031800021F00E94C1200C940A210895882321F087
:103190000E94C7200C940A210895BF92CF92DF921B
:1031A000EF92FF920F931F93CF93DF936C01D62F73
:1031B000C72FFC01058102950F70128111110E9429
:1031C000DE200E94B720E82E882391F01123D1F051
:1031D0008C2F807F803421F080E28D0F883090F03A
:1031E00082E00E9455210E94B72091E0E82EE92656
:1031F000BC2EB2949FE0B922EB2DF0E0E556FD4CD9
:103200000C940832E12CF4CF0C2F0F70C07F11F01A
:103210000295007F1123A9F0002359F080E28D0F61
:10322000883010F0D11109C0802F0E94C1200E9467
:103230000A218D2F0E942F1814C0802F0E94D120A8
:10324000F6CF8D2F0E947D18002359F080E28D0F5C
:10325000883010F0D1112CC0802F0E94C7200E940E
:103260000A212B2D2850330B2430310520F40E94E5
:1032700089160E942406EE2009F49EC10E94B32004
:1032800080FD9AC1F60112820E94AD200E94361F75
:10329000C6010E94FD1A0E94AD20DF91CF911F91BF
:1032A0000F91FF90EF90DF90CF90BF900C94571F3D
:1032B000802F0E94D720D3CFFC2FFF70FF2EC07F1E
:1032C000C03219F0F29480EFF822DD2369F0D1309A
:1032D00049F1112391F1002351F1F601858180FF1D
:1032E000A8CF8F70858323C0112381F0011106C000
:1032F0000E94F1208F290E94BF18B3CF0130C1F77F
:103300000E94F1208F290E94F720ABCF011106C047
:103310000E9400218F2D0E94C618A3CF013009F40E
:10332000A0CFF6CF112329F0033008F09ACF8F2DCC
:10333000E2CF023008F095CFEDCF002359F3D93317
:1033400049F4FFEF27EE33E0F15020403040E1F741
:1033500000C000008D2F0E947D1883CF8C2F869592
:103360008695837069F0813009F07BCF8D2F9C2F7B
:103370009370111102C090E080E00E94051771CF98
:103380008D2F9C2F9370111102C090E080E00E945D
:10339000EF1667CF8D2F112329F00E947D240E9404
:1033A00068255FCF0E94E524FACF8C2F837009F047
:1033B00041C0111156CF4D2F429546954770440F8D
:1033C000440F0D2F0F7010E030E020E0042E04C0F9
:1033D000000F111F221F331F0A94D2F760E070E024
:1033E000CB01D4FF0FC06FE070E080E090E004C03C
:1033F000660F771F881F991F4A95D2F760957095C1
:1034000080959095C695C695C370602B712B822BC5
:10341000932BC23049F058F4C13019F00E94EA1ED3
:1034200020CF0E94D81E1DCF0E94FC1E1ACF0E94E2
:10343000D61E17CF8695112311F08C2F817088230B
:1034400009F40FCF4D2F429546954770440F440F16
:103450000D2F0F7010E030E020E0042E04C0000FAC
:10346000111F221F331F0A94D2F760E070E0CB01D6
:10347000D4FF0FC06FE070E080E090E004C0660F02
:10348000771F881F991F4A95D2F760957095809590
:103490009095C695C695C370602B712B822B932B8C
:1034A000C23049F058F4C13019F00E94AD1FD9CE96
:1034B0000E949B1FD6CE0E94BF1FD3CE0E94101F1A
:1034C000D0CECF70112329F08C2F0E94361F8D2F64
:1034D00012CF8D2F0E94C6188C2F0E94571FC1CE6D
:1034E000D23F89F160F4D03FC9F0D13F29F11123D7
:1034F00009F442C001119DCE8C2F8F7121C0D33FA2
:1035000039F1D43FA1F7112369F1CF718C2F0E94BB
:10351000361F63E08C2F0E944021A3CE112341F07F
:10352000023008F09ECE8C2F8F710E947A1F99CEA8
:10353000033008F096CEF7CF8C2F8F71112369F2EC
:103540000E94361F8ECE8C2F8F711123C9F3C5CFE9
:10355000112329F08C2F8F710E94211F82CE0E948F
:103560001C1F7FCE81E00E945521023008F479CEE5
:1035700082E00E94552175CE002359F0D93309F01D
:10358000E9CE8FEF97EEE3E081509040E040E1F725
:10359000DFCE8C2F8F71A1CF4C2F4F706D2FC601B6
:1035A0000E94A7060E944E1E5CCE4C2F4F706D2FBE
:1035B000C6010E94AA0655CEDF91CF911F910F91AF
:1035C000FF90EF90DF90CF90BF9008950F931F93DF
:1035D000CF93DF93EC01688179818A810E94752005
:1035E0008C010E94D11F0E94D51EB801CE01DF912F
:1035F000CF911F910F910C94CD18CF93DF93EC01D5
:103600008B819C81892B29F08881998189238F3F27
:1036100059F4DF91CF910895CE010E94E61ACE01B0
:10362000DF91CF910C940906CE010E943B068111D7
:10363000F3CF0E94B720882361F38A81882349F35E
:1036400082E0DF91CF910C9455210E94DE200E94F0
:10365000EE200E940A210E9411270E94682590E016
:1036600080E00E94EF1690E080E00C9405170E9425
:10367000A7200C94251B0E94CE200C94371BE92F09
:10368000E295EF70E250EE3070F4F0E0E555FD4C5D
:103690000C940832803F19F020F4883E20F481E039
:1036A0000895843FE1F380E00895883EC0F3813FB0
:1036B000D1F7F5CF93FB882780F908950E946B20FE
:1036C0000C943F1BCF93DF9300D000D00F92CDB767
:1036D000DEB70F900F900F900F900F90DF91CF916A
:1036E0000895CF93DF9300D000D000D0CDB7DEB7E0
:1036F00026960FB6F894DEBF0FBECDBFDF91CF91F7
:1037000008951F93CF93DF93C0910C0216E0809130
:103710000D028C1304C0DF91CF911F910895D0E06A
:103720001C9FF0011D9FF00D1124E25FFD4F4081B1
:10373000518162817381848195810E94711B2196E0
:10374000C770E5CF40913E0250913F026091400228
:103750007091410280914202909143020C94711B3E
:103760001F93CF93DF9380914302807FA9F48091D0
:103770004002882389F080910C02C0910D02609173
:103780003E0270913F02A0914102B0914202D62FB9
:10379000D72316E0C81304C0DF91CF911F9108957D
:1037A00090E0109711F0DF3F19F401968770F2CF87
:1037B000189F9001199F300D1124F901E25FFD4F10
:1037C00041814713F2CF40814613EFCF428141112F
:1037D000ECCF438154814A1B5B0B483C510528F7D1
:1037E000809143028F70806180934302F901ED5E06
:1037F000FD4F80818F70806180838EE392E00E9414
:10380000FD1ADF91CF911F910C94811BAF92BF9253
:10381000CF92DF92EF92FF920F931F93CF93DF939C
:10382000CDB7DEB761970FB6F894DEBF0FBECDBF40
:103830008C0185E0F801DE011D9601900D928A95BC
:10384000E1F7F80140815181E2808EE3C82E82E0E9
:10385000D82E60914102709142026115710509F400
:1038600061C190913E0220913F02892F82238F3FB8
:1038700009F458C1A380B480F0904002F501E61B22
:10388000F70BFF2009F4FCC080914302382F307FF2
:10389000E83CF10508F0B2C0311179C0FE2C2513C7
:1038A00023C0941321C0E1101FC08F7080618093EA
:1038B00043020E94A21BC6010E94FD1A809143028E
:1038C000F80185838F2D61960FB6F894DEBF0FBE89
:1038D000CDBFDF91CF911F910F91FF90EF90DF90BF
:1038E000CF90BF90AF900895AB2829F0842F852307
:1038F0008F3F09F033C180E0F82FF170DF2E80FF99
:103900003CC080910C0220910D0236E0821315C05C
:103910004D875E878D859E850E946B20292F22957D
:103920002F702230F0F0243018F59F70F1F0F8017C
:103930009581907FD1F4D12C1EC090E0389FF0018A
:10394000399FF00D1124E25FFD4F6181651306C0C0
:103950006081641303C062816E110FC0019687708D
:10396000D5CF9F7011F0882331F3805E883018F333
:10397000C8010E94FD1AFD2CA5CFEE2009F4A2CFAC
:1039800080914302816080934302F12C9BCF2513E9
:1039900006C0941304C0F801EE2009F48DC04D87D1
:1039A0005E878D859E850E945E1B882319F1EE201F
:1039B00009F180914302803270F020913E023091F3
:1039C0003F0238872F831986BB86AA868C87CE0153
:1039D00007960E94FD1A86E0F801AEE3B2E001907E
:1039E0000D928A95E1F70E94B01B0E94A21BFF2452
:1039F000F39468CFC8010E94FD1AF9CF311113C0AA
:103A00007A2DB98AA88A6E2D89890E94621B8EE35D
:103A100092E00E94FD1A86E0F60111928A95E9F77C
:103A20000E94A21BB2CF25130FC094130DC0E1104A
:103A30000BC0F8018583C8010E94FD1A86E0F601DB
:103A400011928A95E9F73ECF4D875E878D859E85D9
:103A50000E945E1B882371F2EE2061F28091430286
:103A6000803208F4B8CF20913E0230913F023A8371
:103A700029831B82BD82AC828E83CE010196A9CFA1
:103A8000E83CF10508F041C0FE2CEE2009F4B2CF6D
:103A900025132AC0941328C08091430280FD1BC0C7
:103AA000982F907FC1F0F8018583903F31F0982FD7
:103AB000907F905F8F70892B8583C8010E94FD1ACB
:103AC00086E0F801AEE3B2E001900D928A95E1F74D
:103AD0000E94A21BF7CE86E0F801AEE3B2E00190AF
:103AE0000D928A95E1F7EECE4D875E878D859E8596
:103AF0000E945E1B81116FCF809143028160809391
:103B00004302C8010E94FD1ADDCE7A2DB98AA88A27
:103B10006E2D89890E94621B86E0F60111928A95BA
:103B2000E9F7D6CFEE2009F465CF4D875E878D8506
:103B30009E850E945E1BF82E882309F45BCF86E0E9
:103B4000F801AEE3B2E001900D928A95E1F78EE3C1
:103B500092E00E942A180E94B01BBACF81E08E2505
:103B6000CBCE88EC90E008951F93CF93DF93CDB731
:103B7000DEB72C970FB6F894DEBF0FBECDBF4F83D4
:103B8000588769877A878B879C87CE0107960E9422
:103B9000061C882369F08A859B85892B39F04F8123
:103BA0005885842F85238F3F09F071C016E05FC0D0
:103BB00086E0FE013796DE01119601900D928A95FE
:103BC000E1F78A859B85892B89F38F8198858923E5
:103BD0008F3F61F320910D0230E0C901019687709B
:103BE000992740910C024817190671F40E943B1B5B
:103BF00010920D0210920C0286E0EEE3F2E0DF017B
:103C00001D928A95E9F7D2CF96E0929FD001939FBB
:103C1000B00D1124A25FBD4FFE01319601900D92AF
:103C20009A95E1F780930D020E94811BBFCF819F7F
:103C3000C0011124825F9D4F0E94061C8823E9F079
:103C4000E0910C021E9FF0011124E25FFD4F4081C4
:103C5000518162817381848195810E94711B809161
:103C60000C0290E001968770992780930C02809156
:103C70000C0290910D028913DACF2C960FB6F894AE
:103C8000DEBF0FBECDBFDF91CF911F910895698533
:103C90007A858B859C850E94711B88CFEF92FF925D
:103CA0000F931F93CF93DF938C01892B81F0F12C1D
:103CB000EE24E394E8012196F8018491843770F4AE
:103CC000843008F05FC08130B1F08230A1F1DF9123
:103CD000CF911F910F91FF90EF900895853709F4D0
:103CE0004CC008F43DC09CE7980F903780F78F7761
:103CF0000E947D1849C00E5F1F4FFE01849190E223
:103D0000980F983060F48770FE2D01C0FF0F8A95E0
:103D1000EAF78F2F0E94E1200E940A2102C00E9430
:103D20002F188F2D815030F2EFE9FFE03197F1F736
:103D300000C00000F7CF0E5F1F4FFE01849190E29C
:103D4000980F983050F48770FE2D01C0FF0F8A95B0
:103D5000EAF78F2F0E94E720DFCF0E947D18E1CF86
:103D60000E5F1F4FFE01C491C150D8F28FE99FE052
:103D70000197F1F700C00000F7CF0E5F1F4FFE0163
:103D8000F490CFCF0E942F188E01CBCF08950C94C2
:103D9000C61E0E94C71E60935702709358028093FC
:103DA000590290935A020C94251B08950C94C91E35
:103DB0000F931F93009157021091580220915902BE
:103DC00030915A02602B712B822B932B1F910F91F4
:103DD0000C94C91E0F931F93009157021091580223
:103DE0002091590230915A02602371238223932338
:103DF0001F910F910C94C91E0F931F9300915702AE
:103E0000109158022091590230915A02602771276F
:103E1000822793271F910F910C94C91E0C94C61EE4
:103E20000E941E05609353027093540280935502C2
:103E3000909356020C94251B60E070E0CB010C942B
:103E4000101F0F931F9341E050E060E070E08A0183
:103E50009B0104C0000F111F221F331F8A95D2F748
:103E6000C901B8011F910F910C94101F0F931F935C
:103E700041E050E060E070E004C0440F551F661F51
:103E8000771F8A95D2F78091530290915402A091A6
:103E90005502B09156028A019B01082B192B2A2B3F
:103EA0003B2BC901B8011F910F910C94101F0F9368
:103EB0001F9341E050E060E070E004C0440F551FE4
:103EC000661F771F8A95D2F7CB01BA01609570956E
:103ED00080959095009153021091540220915502C3
:103EE0003091560260237123822393231F910F91F7
:103EF0000C94101F0F931F9341E050E060E070E0BE
:103F000004C0440F551F661F771F8A95D2F7809112
:103F1000530290915402A0915502B09156028A0129
:103F20009B01082719272A273B27C901B8011F91A0
:103F30000F910C94101F0F931F9300915302109137
:103F400054022091550230915602602B712B822B26
:103F5000932B1F910F910C94101F0F931F9300919F
:103F60005302109154022091550230915602602361
:103F70007123822393231F910F910C94101F0F9391
:103F80001F930091530210915402209155023091D9
:103F9000560260277127822793271F910F910C9457
:103FA000101F0895E92FEE0FEE0F9E0F890F982F27
:103FB000977041E001C0440F9A95EAF7869586957F
:103FC000869595E0899FF0011124EC5BFD4F30E070
:103FD00020E070E05191DF011197CB01022E02C069
:103FE000969587950A94E2F78170819585278423B9
:103FF00085278C932F5F3F4F2530310559F7089562
:10400000E92FEE0FEE0F9E0F890F982F9770869570
:104010008695869525E0829FF0011124EC5BFD4F8B
:1040200050E040E080E0219130E0092E02C036955A
:1040300027950A94E2F721703327042E01C0220F3E
:104040000A94EAF7822B4F5F5F4F4530510559F7CD
:104050000895BF92CF92DF92EF92FF920F931F933A
:10406000CF93DF938C01C0905302D0905402E09024
:104070005502F09056028091570290915802A091FB
:104080005902B0915A02C82AD92AEA2AFB2ACFE15A
:10409000D0E0BC2ED701C6010C2E04C0B695A79562
:1040A000979587950A94D2F780FD0EC0219788F7DF
:1040B000B12C8B2DDF91CF911F910F91FF90EF903D
:1040C000DF90CF90BF900895B8018C2F0E94C70653
:1040D000019761F3EECFCF93DF93EC010E9429208B
:1040E000BE01DF91CF910C94C7061F93CF93DF934E
:1040F000EB0190910B02992331F0CB01DF91CF912D
:104100001F910C946B20882379F0CB010E94292009
:10411000182F682FCE010E94D21FBE01812FDF9180
:10412000CF911F910C94C706CB010E940020182F3D
:10413000F4CF682F80911201909113010C94C92241
:10414000682F80911201909113010C94CB228091E1
:104150001201909113010C94CD2280915B02859500
:1041600085958595089580915B028770089590915B
:104170005B02977081E009F480E008958091670206
:10418000089590916702892B809367020895809526
:1041900090916702982390936702089510926702A6
:1041A000089590916602892B809366020895809508
:1041B0009091660298239093660208951092660289
:1041C000089590916502892B8093650208958095EA
:1041D000909165029823909365020895109265026C
:1041E000089580915C02089508950C94F4209091B4
:1041F0005C02981721F080935C020C94F5200895DE
:1042000080915C02882329F010925C0280E00C947B
:10421000F5200895E0911201F09113018091670259
:104220008083E0911201F0911301808190916602E8
:10423000892B8083E0911201F0911301808190918C
:104240006502892B808390915C02992381F0E09133
:104250001201F09113018081892B808380911201DA
:10426000909113010E94812281110E94002180916E
:104270001201909113010C94951608950C943D2110
:1042800098E0899F90011124622B60935B020E9449
:10429000361F80915B028595859585950C943E210E
:1042A00010925B0280E00C943E2190915B0280951D
:1042B000892380935B02282F277071F4282F082E02
:1042C000000C330B9217130639F08595859585956B
:1042D0000E94571F0C94502108959093C901809318
:1042E000C8010895CF92DF92EF92FF926C01EE2405
:1042F000FF2420E0C114D104E104F10419F0C70146
:10430000B60120E1C72ED82EE92EFF24C114D10416
:10431000E104F10419F0285FC701B6016B017C01CB
:1043200054E0F694E794D794C7945A95D1F7C11402
:10433000D104E104F10419F02C5FC701B6016B014F
:104340007C0142E0F694E794D794C7944A95D1F75C
:10435000C114D104E104F10419F02E5FC701B601C4
:104360009695879577956795672B682B692B09F04C
:104370002F5F822FFF90EF90DF90CF90089582956E
:1043800090E09C01220F331F220F331F2C7C959548
:104390008795959587958373282B30E0C901880F01
:1043A000991F8A7A359527952575822B08956FEF89
:1043B0007FEF90E080E00C946F3290E080E00E940C
:1043C0004B3221E08C3E9E4F09F020E0822F089571
:1043D00082E090E00C943D3283E090E00C943D321A
:1043E000CF9384E090E00E943D32C82F81E290E0BC
:1043F0000E943D32982F8C2FCF910895CF93C92FD3
:10440000682F84E090E00E9451326C2F81E290E0AE
:10441000CF910C945132AB01BC018FE090E00C9431
:104420006332AB01BC0183E190E00C94633260E045
:1044300070E0CB010C94112260E070E0CB010E948F
:104440000B220C9417226CEE7EEF90E080E00E942D
:104450006F3260E082E090E00E94513260E083E0E1
:1044600090E00E945132109257021092580210921E
:10447000590210925A0260E084E090E00E945132AA
:1044800060E081E290E00E94513260E085E090E0DF
:104490000E94513260E086E090E00E9451326FEF5E
:1044A00087E090E00E94513240E050E0BA0188E09D
:1044B00090E00E94633260E08DE090E00E94513213
:1044C00040E050E0BA0188E190E00E94633260E091
:1044D00087E190E00E94513240E050E0BA018CE167
:1044E00090E00E94633260E080E290E00E945132EE
:1044F0000C941C220C942322682F8EE090E00C94E4
:1045000051329C012E5F3F4FAC01485F5F4F80E00E
:104510002417350709F40895F90191919F01992312
:10452000B9F38F5FF5CF662349F0FC013296089608
:104530002191261729F0E817F907D1F780E00895AF
:1045400081E008959C01FC0132969FEF80E041914B
:10455000461751F09F3F19F4411101C0982F8F5F0A
:104560008630A9F79F3F09F40895290F311D97FD63
:104570003A95F90162830895FC01329608962191DB
:10458000261303C0DF0111971C92E817F907B9F74A
:1045900008950C94A2220C94BC22029626E0FC0101
:1045A00011922A95E9F70895089508950C94D5225B
:1045B0000E94D6228091A902843009F439C0109259
:1045C000690288E190E020E40FB6F894A895809302
:1045D00060000FBE2093600080E00E9424060E94CD
:1045E000470E80916A0281110AC081E080936A02BD
:1045F00080918E02817080936B020E94B50F0E94A1
:10460000D62283B7817F846083BF83B7816083BFF5
:104610007894889583B78E7F83BF0FB6F894A8955A
:1046200080916000886180936000109260000FBEEE
:1046300008950895CF930E94D4220E9457090E94A2
:104640001923C0E08C2F0E94B608811105C0CF5FEE
:10465000C430C1F7CF91089581E0FCCF08950C9448
:104660002E230E943B1B0E9489160E942406109252
:104670006A0280916B0281110E94500F0E94250EE8
:104680000C942F231F921FB61F9211248F939F9378
:10469000AF93BF9380916902811113C080919F02F3
:1046A0009091A002A091A102B091A2024196A11DF9
:1046B000B11D80939F029093A002A093A102B0939A
:1046C000A202BF91AF919F918F911F901FBE1F902B
:1046D000189582E084BD93E095BD9AEF97BD8093D5
:1046E0006E0008952FB7F89480919F029091A002D8
:1046F000A091A102B091A2022FBF08959C014FB7D3
:10470000F89480919F029091A002A091A102B09193
:10471000A2024FBF821B930B089578941F921FB67D
:104720001F9211248F939F93AF93BF9380919F0209
:104730009091A002A091A102B091A2020196A11DA8
:10474000B11D80939F029093A002A093A102B09309
:10475000A202BF91AF919F918F911F901FBE1F909A
:10476000189587E797E7909301088093000888E100
:104770009AE00FB6F894A895809360000FBE9093CE
:104780006000FFCF0C94D7210E9457098FE39CE96A
:104790000197F1F700C000000E94570983E00E94D2
:1047A000B60880FF04C00E94C2230C94B123089570
:1047B0000E94DD21811102C00E947A220E94E8211C
:1047C000809368020E94F0219093A4028093A30238
:1047D0000E94EC21682F70E090E080E00E94D61EDD
:1047E000609153027091540280915502909156024B
:1047F0000C941E058091720280FF12C06091190115
:1048000085E0689FB001112475956795759567954A
:1048100060387105A8F561157105A1F1862F08951D
:1048200081FF09C06091190185E0689FB0011124E2
:1048300075956795EDCF6091190182FD0AC0809151
:1048400071028823D1F090911801609119018917A4
:1048500028F085E0689FB0011124DACF869FB0016F
:10486000112485E0869F9001879F300D1124692FC8
:1048700070E0C9010E94F431CBCF65E070E0CECF8B
:104880008FE7089581E008958091720280FF0CC047
:104890006091150170E0759567957595679561153F
:1048A000710549F1862F089581FF06C060911501B9
:1048B00070E075956795F3CF6091150182FD0BC08F
:1048C000909170029923A1F06091140180911501DB
:1048D000961738F0682F70E06038710500F38FE7A5
:1048E0000895899FC001112470E00E94F431F4CF33
:1048F00061E070E0D7CF81E00895803F31F40E94FD
:10490000FA238195809376020895813F19F40E94DD
:10491000FA23F8CF823F31F40E94FA2381958093E5
:1049200075020895833F19F40E94FA23F8CF893F56
:1049300029F40E9444248093770208958A3F21F449
:104940000E9444248195F7CF8B3F31F40E94442488
:1049500081958093780208958C3F19F40E94442435
:10496000F8CF843F31F480917402816080937402A7
:104970000895853F21F4809174028260F7CF863FCD
:1049800021F4809174028460F1CF873F21F48091FB
:1049900074028860EBCF883F21F4809174028061BB
:1049A000E5CF8D3F31F48091720281608093720275
:1049B00008958E3F21F4809172028260F7CF8F3F7D
:1049C000B9F7809172028460F1CF90917502803FB7
:1049D00059F48091760287FF0DC0109276029111F2
:1049E0000BC01092710208C0813F81F48091760261
:1049F00018169CF3992381F08091770290917802A8
:104A0000892B09F064C0109270020895823F49F426
:104A100097FFF0CF10927502809176028111ECCF52
:104A2000E0CF833F19F41916ACF3E4CF209177025D
:104A3000893F29F41216F4F610927702DBCF8A3FF1
:104A400019F427FFD7CFF8CF209178028B3F29F4B4
:104A500027FFD0CF10927802CDCF8C3F19F41216D9
:104A6000CCF3C8CF843F31F4809174028E7F809361
:104A70007402C0CF853F21F4809174028D7FF7CFFF
:104A8000863F21F4809174028B7FF1CF873F21F420
:104A900080917402877FEBCF883F21F4809174026C
:104AA0008F7EE5CF8D3F31F4809172028E7F8093AF
:104AB0007202A0CF8E3F21F4809172028D7FF7CFDA
:104AC0008F3F09F097CF809172028B7FF0CF0895CE
:104AD0008091680283FF7EC088E696E00E947104A0
:104AE000809174021F928F9383E696E09F938F9339
:104AF0000E940A0581E696E00E9471048091750289
:104B0000282F082E000C330B3F938F938EE596E0F1
:104B10009F938F930E940A058CE596E00E94710492
:104B200080917602282F082E000C330B3F938F9331
:104B300089E596E09F938F930E940A0587E596E0AA
:104B40000E94710480917702282F082E000C330BED
:104B50003F938F9384E596E09F938F930E940A057D
:104B600082E596E00E94710480917802282F082E39
:104B7000000C330B3F938F938FE496E09F938F93BA
:104B80000E940A058CE496E00E94710480917102F3
:104B90001F928F9389E496E09F938F930E940A055A
:104BA00087E496E00E947104809172021F928F93B5
:104BB00084E496E09F938F930E940A0581E496E037
:104BC0000E9471048DB79EB74C960FB6F8949EBFA5
:104BD0000FBE8DBF0E9472239C019091750280913F
:104BE0007602982B21F030936F0220936E02909101
:104BF000770280917802982B21F030936D022093F8
:104C00006C0283E792E00C94E116EF92FF920F930F
:104C10001F93CF93DF9300D000D000D0CDB7DEB785
:104C200086E0E3E7F2E0DE01119601900D928A95AD
:104C3000E1F7E0907502F090760200917702109112
:104C400078021092750210927602109277021092FA
:104C500078028E2D8F2991F080916E0290916F02D3
:104C60000E947E23AC0190917102992309F43FC008
:104C700080911A018417150608F447C0802F812BF4
:104C800091F080916C0290916D020E947E23AC01A4
:104C900090917002992309F477C0809116018417CE
:104CA000150608F47FC08091750290917602892BD9
:104CB00090917702892B90917802892B11F00E94B4
:104CC000682586E0FE013196A3E7B2E001900D92DF
:104CD0008A95E1F726960FB6F894DEBF0FBECDBFDA
:104CE000DF91CF911F910F91FF90EF900895209148
:104CF0001B018AE0289F900111242417350708F032
:104D0000BDCF9F5F9093710202C09F3FD1F7EE200D
:104D100059F00E94FA239FEF1E140CF491E0899F32
:104D2000802D112480937502FF2059F00E94FA23F0
:104D30009FEF1F140CF491E0899F802D1124809324
:104D4000760230917502332309F498CF20917602D0
:104D5000222309F493CF45EB3403C0011124992396
:104D600059F09093750245EB2403900111243323ED
:104D700039F03093760282CF81E080937502F3CFD1
:104D800081E0809376027ACF209117018AE0289FF4
:104D9000900111242417350708F085CF9F5F909369
:104DA000700202C09F3FD1F7002359F00E944424B3
:104DB0009FEF10160CF491E0899F802D11248093B1
:104DC0007702112359F00E9444249FEF11160CF42E
:104DD00091E0899F802D1124809378023091770291
:104DE000332309F460CF20917802222309F45BCFAA
:104DF00045EB3403C0011124992359F090937702B5
:104E000045EB240390011124332339F030937802C9
:104E10004ACF81E080937702F3CF81E080937802DC
:104E200042CF86E0E3E7F2E0DF011D928A95E9F7E1
:104E30001092710210927002109272020895809185
:104E4000840208959FB7F89410927B029FBF9091BF
:104E5000A902943009F048C02091E9002F703091E8
:104E6000EC00932F917030FD90E8922B23E020937B
:104E7000E9002091EB0020FF34C02091EE0027FFD5
:104E800030C020917902222321F02091E80025FFF3
:104E900028C01092790226E03091E80035FF14C056
:104EA0008093F1008091E80085FD27C08091E800A3
:104EB00080FFFCCF8091E8008E778093E8009F70A0
:104EC0009093E90080E008953091A902343049F4CC
:104ED0003091EB0035FD05C0215041F481E0809315
:104EE00079029F709093E9008FEF0895EFE9FFE05A
:104EF0003197F1F700C00000CFCF8FB7F89421E0D1
:104F000020937B028FBFDBCFCF93DF9300D00F9234
:104F1000CDB7DEB79091A902943019F589837B83D0
:104F20006A8382E08093E9008FEF9091E8008150DE
:104F300095FD06C095ED9A95F1F700008111F5CF2A
:104F40008091E80085FF0DC050E040E063E070E034
:104F5000CE0101960E94FB298091E8008E77809314
:104F6000E8000F900F900F90DF91CF910895BC0152
:104F700084E00C948427BC0183E00C9484279C017A
:104F800082E08093E9009FEF8091E800915085FDD9
:104F900006C085ED8A95F1F700009111F5CF80915B
:104FA000E80085FF0CC050E040E066E070E0C90119
:104FB0000E94FB298091E8008E778093E800089595
:104FC000CF93DF93EC0181E08093E9008FEF909124
:104FD000E800815095FD06C095ED9A95F1F7000027
:104FE0008111F5CF8091E80085FF14C050E040E0CA
:104FF00068E070E0CE010E94FB298091E8008E7786
:105000008093E80088E0FE01ACE7B2E001900D92E9
:105010008A95E1F7DF91CF91089580EB96E00E94A9
:1050200071048091A802811109C00E948B2B0E94FB
:10503000E82B8091E20084608093E20008958CEA7E
:1050400096E00E9471041092A802089588EA96E002
:105050000C94710484EA96E00C94710480EA96E062
:105060000E9471040C94312320917A022F5F822FC9
:1050700062E30E94D431992319F020937A020895B3
:1050800010927A0280917B028823F1F08091A9022C
:105090008430C1F49091E9009F702091EC00822F40
:1050A000817020FD80E8892B93E09093E900909136
:1050B000EB0090FF04C09091EE0097FD08C08F7048
:1050C0008093E90010927B0208951092F100909174
:1050D000E80095FDFACF9091E80090FFF0CF909115
:1050E000E8009E779093E800EACF42E061EC81E02F
:1050F0000E94072B42E261EC82E00E94072B42E211
:1051000061EC83E00C94072B8091AB02833009F4AF
:105110005FC030F48130C1F1823009F49BC0089542
:105120008A3009F487C08B3009F46DC0893009F0EA
:105130004EC08091AA02813209F049C08091AE022E
:105140009091AF02029708F042C08091E800877FFB
:105150008093E8008091E80082FF35C09091F300D1
:105160008091F200029729F48091F1008B7F8130C9
:1051700021F48091F100809384028091E8008B7784
:105180008093E8000C943B2B8091AA02813AF9F4B9
:105190008091E800877F8093E8008091AE02909133
:1051A000AF02892B61F468E08CE792E070E00E9426
:1051B0004A2A8091E8008B778093E800089560E0A8
:1051C00090E080E0F3CF8091A9028111C3CF0895D0
:1051D0008091AA02813AD9F78091AE029091AF02F4
:1051E000892BA9F78091E800877F8093E800809160
:1051F000E80080FFFCCF809126018093F100809130
:10520000E8008E77BDCF8091AA02813201F78091AC
:10521000AE029091AF02892BD1F68091E800877F92
:105220008093E8000E943B2B8091AC028093260182
:105230000C943B1B8091AA02813249F68091E800D0
:10524000877F8093E8000E943B2B8091AD02809382
:10525000850208958091AA02813A09F0B8CF809121
:10526000E800877F8093E8008091E80080FFFCCF12
:1052700080918502C2CF84B7877F84BF0FB6F89430
:10528000A895809160008861809360001092600012
:105290000FBE80E890E00FB6F89480936100909381
:1052A00061000FBE0E9426170E948B2B0E94E82BE4
:1052B0008091E20084608093E20082E297E20E94A3
:1052C0006D2178940E94702E0E9430178CE191E03D
:1052D0000E9484168FE896E00E9471048091A902D2
:1052E000853019F00E946417F9CF8BE896E00E9490
:1052F00071040E94D8228091A702882379F30E942A
:105300001A23882359F30E94E529E8CF0C948829B1
:10531000292F33272330310521F168F4213031055D
:1053200009F449C02230310509F44AC090E080E018
:1053300030E020E029C02132310581F122323105EF
:10534000A9F76330710590F7FB01EE0FFF1FE454DE
:10535000FE4F2081318167547E4FFB01808190E0B8
:1053600013C099278130910599F0009741F0823060
:10537000910589F00397D1F6E4EBF6E002C0E4EE84
:10538000F6E0849190E09F01FA0131832083089533
:10539000ECECF6E0F6CFEAEBF6E0F3CF6330710524
:1053A00028F6660F771FFB01EE53FE4F20813181F7
:1053B00089E090E0E9CF82E190E023E437E0E4CFB8
:1053C0008BE590E028EE36E0DFCF80E189BD82E119
:1053D00089BD09B400FEFDCF8091D8008F7D8093F8
:1053E000D8008091E00082608093E0008091E0002E
:1053F00081FDFCCF0895AF92BF92CF92DF92FF92D2
:105400000F931F93CF93DF936C01EB018A010E94EE
:105410005A2BF82E811123C00115110539F0F8011E
:1054200080819181C81BD90BC80ED91EB12CA12C2B
:105430002097A9F08091E80085FD22C08091E800C6
:105440008E778093E80001151105A1F0F8018081A5
:105450009181A80EB91EB182A08285E0F82E8F2D11
:10546000DF91CF911F910F91FF90DF90CF90BF9070
:10547000AF9008950E945A2B8823D1F2F82EEFCFD7
:10548000F60181916F018093F1002197FFEFAF1A30
:10549000BF0ACECFFC018091B0029091B102861775
:1054A0009707A0F06115710529F49091E8009E77A7
:1054B0009093E80090E06115710551F4911108C0D6
:1054C0008091E80082FF34C080E00895BC01F2CFF3
:1054D0008091A9028823C1F18530C1F18091E80053
:1054E00083FD30C08091E80082FDEACF8091E80022
:1054F00080FFE1CF8091F3002091F200382F6115F9
:10550000710519F02830310558F091E02830310547
:1055100009F090E02091E8002E772093E800CBCFAF
:1055200081918093F100615071092F5F3F4FE7CF68
:105530008091A902882341F0853041F08091E800F4
:1055400083FFBECF81E0089582E0089583E008954F
:10555000FC018091B0029091B10286179707A0F0EC
:105560006115710529F48091E8008E778093E80039
:1055700090E06115710551F4911108C08091E80027
:1055800082FF35C080E00895BC01F2CF8091A9026E
:105590008823C9F18530C9F18091E80083FD31C0CD
:1055A0008091E80082FDEACF8091E80080FFE1CFA2
:1055B0008091F3002091F200382F6115710519F0E8
:1055C0002830310558F091E02830310509F090E09D
:1055D0008091E8008E778093E800CBCF8491809310
:1055E000F1003196615071092F5F3F4FE6CF8091F6
:1055F000A902882341F0853041F08091E80083FFC3
:10560000BDCF81E0089582E0089583E00895982F4A
:10561000973028F08F708093E90081E0089590938F
:10562000E900242F762F50E0981731F07091EC00AC
:105630002091ED005091F00021FD02C09F5FE8CF66
:105640003091EB003E7F3093EB003091ED003D7FD9
:105650003093ED003091EB0031603093EB007093AC
:10566000EC002093ED005093F0002091EE0027FD18
:10567000E5CF80E008958091AA0287FF13C0809152
:10568000E80082FF06C08091E8008B778093E800F5
:1056900004C08091A9028111F2CF08958091A902DE
:1056A0008823D9F38091E80080FFF8CF8091E8004B
:1056B0008E77ECCF2091E4003091E50095E6A901CA
:1056C0002091EC00822F817020FF06C08091E800BD
:1056D00080FF06C080E008952091E80022FD1AC0F6
:1056E0008091A902882389F0853089F08091EB00B0
:1056F00085FD0FC02091E4003091E500421753076B
:10570000F9F29150E1F684E0089582E0089583E093
:10571000089581E008950E94F92B0E94012CE0EE8B
:10572000F0E0808181608083E8EDF0E080818F7718
:10573000808319BCA7EDB0E08C918E7F8C93808123
:105740008F7E80831092A80208950F931F93CF93AA
:10575000DF930E94F92B0E94012CC8EDD0E08881D4
:105760008F77888388818068888388818F7D88830C
:1057700019BC1092A9021092A5021092A7021092D1
:10578000A60200EE10E0F80180818B7F8083888183
:105790008160888342E060E080E00E94072BE1EEB8
:1057A000F0E080818E7F8083E2EEF0E08081816096
:1057B0008083808188608083F80180818E7F8083F0
:1057C000888180618883DF91CF911F910F91089527
:1057D000E8EDF0E080818F7E8083E7EDF0E080816E
:1057E0008160808384E082BF81E08093A8020C9472
:1057F000A52BE8EDF0E080818E7F80831092E2009F
:1058000008951092DA001092E10008951F920F920D
:105810000FB60F9211242F933F934F935F936F9383
:105820007F938F939F93AF93BF93EF93FF93809159
:10583000E10082FF0BC08091E20082FF07C08091EF
:10584000E1008B7F8093E1000E9434288091DA0090
:1058500080FF19C08091D80080FF15C08091DA00C8
:105860008E7F8093DA008091D90080FF96C080E11E
:1058700089BD82E189BD09B400FEFDCF81E080933E
:10588000A9020E940D288091E10080FF19C080913B
:10589000E20080FF15C08091E2008E7F8093E200DD
:1058A0008091E20080618093E2008091D800806264
:1058B0008093D80019BC85E08093A9020E942A2811
:1058C0008091E10084FF2BC08091E20084FF27C01B
:1058D00080E189BD82E189BD89B5982F917080FFF3
:1058E000FBCF8091D8008F7D8093D8008091E1001C
:1058F0008F7E8093E1008091E2008F7E8093E200B2
:105900008091E20081608093E2008091A50288236B
:1059100009F449C084E08093A9020E942E28809156
:10592000E10083FF29C08091E20083FF25C08091C0
:10593000E100877F8093E10082E08093A9021092CA
:10594000A5028091E1008E7F8093E1008091E200CA
:105950008E7F8093E2008091E20080618093E2007C
:1059600042E060E080E00E94072B8091F0008860B8
:105970008093F0000E942628FF91EF91BF91AF9194
:105980009F918F917F916F915F914F913F912F9157
:105990000F900FBE0F901F90189519BC1092A9027E
:1059A0000E941F2870CF8091E30087FD93E09093C1
:1059B000A902B3CF1F920F920FB60F9211242F930B
:1059C0003F934F935F936F937F938F939F93AF9387
:1059D000BF93CF93DF93EF93FF93D091E900DF70F4
:1059E0008091EC00C82FC17080FDC0E81092E900E2
:1059F0008091F000877F8093F00078940E941E2DA4
:105A00001092E9008091F00088608093F000CD2B27
:105A1000CF70C093E900FF91EF91DF91CF91BF91DB
:105A2000AF919F918F917F916F915F914F913F9136
:105A30002F910F900FBE0F901F9018951F93CF932B
:105A4000DF93CDB7DEB7AA970FB6F894DEBF0FBECF
:105A5000CDBF8AEA92E02091F100FC012193CF01B1
:105A6000F2E0823B9F07B9F70E9484288091E8000A
:105A700083FF1EC18091AA029091AB029A3008F078
:105A800017C1E92FF0E0E754FD4C0C940832803840
:105A900099F0823809F00CC18091AE028F70873086
:105AA00008F006C18093E9008091EB0085FB882710
:105AB00080F91092E90006C08091A6029091A70299
:105AC000911182609091E800977F9093E800809315
:105AD000F1001092F1008091E8008E77E5C08823F4
